{"abi":[{"type":"constructor","inputs":[],"stateMutability":"nonpayable"},{"type":"receive","stateMutability":"payable"},{"type":"function","name":"BridgeFinalizeERC20","inputs":[{"name":"sourceChainId","type":"uint256","internalType":"uint256"},{"name":"destChainId","type":"uint256","internalType":"uint256"},{"name":"from","type":"address","internalType":"address"},{"name":"to","type":"address","internalType":"address"},{"name":"sourceTokenAddress","type":"address","internalType":"address"},{"name":"destTokenAddress","type":"address","internalType":"address"},{"name":"amount","type":"uint256","internalType":"uint256"},{"name":"_fee","type":"uint256","internalType":"uint256"},{"name":"_nonce","type":"uint256","internalType":"uint256"}],"outputs":[{"name":"","type":"bool","internalType":"bool"}],"stateMutability":"nonpayable"},{"type":"function","name":"BridgeFinalizeETH","inputs":[{"name":"sourceChainId","type":"uint256","internalType":"uint256"},{"name":"destChainId","type":"uint256","internalType":"uint256"},{"name":"sourceTokenAddress","type":"address","internalType":"address"},{"name":"from","type":"address","internalType":"address"},{"name":"to","type":"address","internalType":"address"},{"name":"amount","type":"uint256","internalType":"uint256"},{"name":"_fee","type":"uint256","internalType":"uint256"},{"name":"_nonce","type":"uint256","internalType":"uint256"}],"outputs":[{"name":"","type":"bool","internalType":"bool"}],"stateMutability":"payable"},{"type":"function","name":"BridgeInitiateERC20","inputs":[{"name":"sourceChainId","type":"uint256","internalType":"uint256"},{"name":"destChainId","type":"uint256","internalType":"uint256"},{"name":"to","type":"address","internalType":"address"},{"name":"sourceTokenAddress","type":"address","internalType":"address"},{"name":"destTokenAddress","type":"address","internalType":"address"},{"name":"value","type":"uint256","internalType":"uint256"}],"outputs":[{"name":"","type":"bool","internalType":"bool"}],"stateMutability":"nonpayable"},{"type":"function","name":"BridgeInitiateETH","inputs":[{"name":"sourceChainId","type":"uint256","internalType":"uint256"},{"name":"destChainId","type":"uint256","internalType":"uint256"},{"name":"destTokenAddress","type":"address","internalType":"address"},{"name":"to","type":"address","internalType":"address"}],"outputs":[{"name":"","type":"bool","internalType":"bool"}],"stateMutability":"payable"},{"type":"function","name":"ClaimAllReward","inputs":[],"outputs":[],"stateMutability":"nonpayable"},{"type":"function","name":"ClaimbyID","inputs":[{"name":"i","type":"uint256","internalType":"uint256"}],"outputs":[],"stateMutability":"nonpayable"},{"type":"function","name":"CompletePoolAndNew","inputs":[{"name":"CompletePools","type":"tuple[]","internalType":"struct IPoolManager.Pool[]","components":[{"name":"startTimestamp","type":"uint32","internalType":"uint32"},{"name":"endTimestamp","type":"uint32","internalType":"uint32"},{"name":"token","type":"address","internalType":"address"},{"name":"TotalAmount","type":"uint256","internalType":"uint256"},{"name":"TotalFee","type":"uint256","internalType":"uint256"},{"name":"TotalFeeClaimed","type":"uint256","internalType":"uint256"},{"name":"IsCompleted","type":"bool","internalType":"bool"}]}],"outputs":[],"stateMutability":"payable"},{"type":"function","name":"DepositAndStakingERC20","inputs":[{"name":"_token","type":"address","internalType":"address"},{"name":"_amount","type":"uint256","internalType":"uint256"}],"outputs":[],"stateMutability":"nonpayable"},{"type":"function","name":"DepositAndStakingETH","inputs":[],"outputs":[],"stateMutability":"payable"},{"type":"function","name":"ETHAddress","inputs":[],"outputs":[{"name":"","type":"address","internalType":"address"}],"stateMutability":"view"},{"type":"function","name":"FeePoolValue","inputs":[{"name":"","type":"address","internalType":"address"}],"outputs":[{"name":"","type":"uint256","internalType":"uint256"}],"stateMutability":"view"},{"type":"function","name":"FundingPoolBalance","inputs":[{"name":"","type":"address","internalType":"address"}],"outputs":[{"name":"","type":"uint256","internalType":"uint256"}],"stateMutability":"view"},{"type":"function","name":"IsSupportToken","inputs":[{"name":"","type":"address","internalType":"address"}],"outputs":[{"name":"","type":"bool","internalType":"bool"}],"stateMutability":"view"},{"type":"function","name":"IsSupportedChainId","inputs":[{"name":"","type":"uint256","internalType":"uint256"}],"outputs":[{"name":"","type":"bool","internalType":"bool"}],"stateMutability":"view"},{"type":"function","name":"MinStakeAmount","inputs":[{"name":"","type":"address","internalType":"address"}],"outputs":[{"name":"","type":"uint256","internalType":"uint256"}],"stateMutability":"view"},{"type":"function","name":"MinTransferAmount","inputs":[],"outputs":[{"name":"","type":"uint256","internalType":"uint256"}],"stateMutability":"view"},{"type":"function","name":"PerFee","inputs":[],"outputs":[{"name":"","type":"uint256","internalType":"uint256"}],"stateMutability":"view"},{"type":"function","name":"Pools","inputs":[{"name":"","type":"address","internalType":"address"},{"name":"","type":"uint256","internalType":"uint256"}],"outputs":[{"name":"startTimestamp","type":"uint32","internalType":"uint32"},{"name":"endTimestamp","type":"uint32","internalType":"uint32"},{"name":"token","type":"address","internalType":"address"},{"name":"TotalAmount","type":"uint256","internalType":"uint256"},{"name":"TotalFee","type":"uint256","internalType":"uint256"},{"name":"TotalFeeClaimed","type":"uint256","internalType":"uint256"},{"name":"IsCompleted","type":"bool","internalType":"bool"}],"stateMutability":"view"},{"type":"function","name":"QuickSendAssertToUser","inputs":[{"name":"_token","type":"address","internalType":"address"},{"name":"to","type":"address","internalType":"address"},{"name":"_amount","type":"uint256","internalType":"uint256"}],"outputs":[],"stateMutability":"nonpayable"},{"type":"function","name":"SupportTokens","inputs":[{"name":"","type":"uint256","internalType":"uint256"}],"outputs":[{"name":"","type":"address","internalType":"address"}],"stateMutability":"view"},{"type":"function","name":"Users","inputs":[{"name":"","type":"address","internalType":"address"},{"name":"","type":"uint256","internalType":"uint256"}],"outputs":[{"name":"isWithdrawed","type":"bool","internalType":"bool"},{"name":"token","type":"address","internalType":"address"},{"name":"StartPoolId","type":"uint256","internalType":"uint256"},{"name":"EndPoolId","type":"uint256","internalType":"uint256"},{"name":"Amount","type":"uint256","internalType":"uint256"}],"stateMutability":"view"},{"type":"function","name":"WithdrawAll","inputs":[],"outputs":[],"stateMutability":"nonpayable"},{"type":"function","name":"WithdrawByID","inputs":[{"name":"i","type":"uint256","internalType":"uint256"}],"outputs":[],"stateMutability":"nonpayable"},{"type":"function","name":"WithdrawPoolManagerAssetTo","inputs":[{"name":"_token","type":"address","internalType":"address"},{"name":"to","type":"address","internalType":"address"},{"name":"_amount","type":"uint256","internalType":"uint256"}],"outputs":[],"stateMutability":"nonpayable"},{"type":"function","name":"assetBalanceMessager","inputs":[],"outputs":[{"name":"","type":"address","internalType":"address"}],"stateMutability":"view"},{"type":"function","name":"depositErc20ToBridge","inputs":[{"name":"tokenAddress","type":"address","internalType":"address"},{"name":"amount","type":"uint256","internalType":"uint256"}],"outputs":[{"name":"","type":"bool","internalType":"bool"}],"stateMutability":"nonpayable"},{"type":"function","name":"depositEthToBridge","inputs":[],"outputs":[{"name":"","type":"bool","internalType":"bool"}],"stateMutability":"payable"},{"type":"function","name":"fetchFundingPoolBalance","inputs":[{"name":"token","type":"address","internalType":"address"}],"outputs":[{"name":"","type":"uint256","internalType":"uint256"}],"stateMutability":"view"},{"type":"function","name":"getPool","inputs":[{"name":"_token","type":"address","internalType":"address"},{"name":"_index","type":"uint256","internalType":"uint256"}],"outputs":[{"name":"","type":"tuple","internalType":"struct IPoolManager.Pool","components":[{"name":"startTimestamp","type":"uint32","internalType":"uint32"},{"name":"endTimestamp","type":"uint32","internalType":"uint32"},{"name":"token","type":"address","internalType":"address"},{"name":"TotalAmount","type":"uint256","internalType":"uint256"},{"name":"TotalFee","type":"uint256","internalType":"uint256"},{"name":"TotalFeeClaimed","type":"uint256","internalType":"uint256"},{"name":"IsCompleted","type":"bool","internalType":"bool"}]}],"stateMutability":"view"},{"type":"function","name":"getPoolLength","inputs":[{"name":"_token","type":"address","internalType":"address"}],"outputs":[{"name":"","type":"uint256","internalType":"uint256"}],"stateMutability":"view"},{"type":"function","name":"getPrincipal","inputs":[],"outputs":[{"name":"","type":"tuple[]","internalType":"struct IPoolManager.KeyValuePair[]","components":[{"name":"key","type":"address","internalType":"address"},{"name":"value","type":"uint256","internalType":"uint256"}]}],"stateMutability":"view"},{"type":"function","name":"getReward","inputs":[],"outputs":[{"name":"","type":"tuple[]","internalType":"struct IPoolManager.KeyValuePair[]","components":[{"name":"key","type":"address","internalType":"address"},{"name":"value","type":"uint256","internalType":"uint256"}]}],"stateMutability":"view"},{"type":"function","name":"getUser","inputs":[{"name":"_user","type":"address","internalType":"address"}],"outputs":[{"name":"","type":"tuple[]","internalType":"struct IPoolManager.User[]","components":[{"name":"isWithdrawed","type":"bool","internalType":"bool"},{"name":"token","type":"address","internalType":"address"},{"name":"StartPoolId","type":"uint256","internalType":"uint256"},{"name":"EndPoolId","type":"uint256","internalType":"uint256"},{"name":"Amount","type":"uint256","internalType":"uint256"}]}],"stateMutability":"view"},{"type":"function","name":"getUserLength","inputs":[{"name":"_user","type":"address","internalType":"address"}],"outputs":[{"name":"","type":"uint256","internalType":"uint256"}],"stateMutability":"view"},{"type":"function","name":"initialize","inputs":[{"name":"initialOwner","type":"address","internalType":"address"},{"name":"_messageManager","type":"address","internalType":"address"},{"name":"_relayerAddress","type":"address","internalType":"address"},{"name":"_withdrawManager","type":"address","internalType":"address"}],"outputs":[],"stateMutability":"nonpayable"},{"type":"function","name":"messageManager","inputs":[],"outputs":[{"name":"","type":"address","internalType":"contract IMessageManager"}],"stateMutability":"view"},{"type":"function","name":"owner","inputs":[],"outputs":[{"name":"","type":"address","internalType":"address"}],"stateMutability":"view"},{"type":"function","name":"pause","inputs":[],"outputs":[],"stateMutability":"nonpayable"},{"type":"function","name":"paused","inputs":[],"outputs":[{"name":"","type":"bool","internalType":"bool"}],"stateMutability":"view"},{"type":"function","name":"periodTime","inputs":[],"outputs":[{"name":"","type":"uint32","internalType":"uint32"}],"stateMutability":"view"},{"type":"function","name":"relayerAddress","inputs":[],"outputs":[{"name":"","type":"address","internalType":"address"}],"stateMutability":"view"},{"type":"function","name":"renounceOwnership","inputs":[],"outputs":[],"stateMutability":"nonpayable"},{"type":"function","name":"setMinStakeAmount","inputs":[{"name":"_token","type":"address","internalType":"address"},{"name":"_amount","type":"uint256","internalType":"uint256"}],"outputs":[],"stateMutability":"nonpayable"},{"type":"function","name":"setMinTransferAmount","inputs":[{"name":"_MinTransferAmount","type":"uint256","internalType":"uint256"}],"outputs":[],"stateMutability":"nonpayable"},{"type":"function","name":"setPerFee","inputs":[{"name":"_PerFee","type":"uint256","internalType":"uint256"}],"outputs":[],"stateMutability":"nonpayable"},{"type":"function","name":"setSupportERC20Token","inputs":[{"name":"ERC20Address","type":"address","internalType":"address"},{"name":"isValid","type":"bool","internalType":"bool"}],"outputs":[],"stateMutability":"nonpayable"},{"type":"function","name":"setSupportToken","inputs":[{"name":"_token","type":"address","internalType":"address"},{"name":"_isSupport","type":"bool","internalType":"bool"},{"name":"startTimes","type":"uint32","internalType":"uint32"}],"outputs":[],"stateMutability":"nonpayable"},{"type":"function","name":"setValidChainId","inputs":[{"name":"chainId","type":"uint256","internalType":"uint256"},{"name":"isValid","type":"bool","internalType":"bool"}],"outputs":[],"stateMutability":"nonpayable"},{"type":"function","name":"stakingMessageNumber","inputs":[],"outputs":[{"name":"","type":"uint256","internalType":"uint256"}],"stateMutability":"view"},{"type":"function","name":"transferOwnership","inputs":[{"name":"newOwner","type":"address","internalType":"address"}],"outputs":[],"stateMutability":"nonpayable"},{"type":"function","name":"unpause","inputs":[],"outputs":[],"stateMutability":"nonpayable"},{"type":"function","name":"withdrawErc20FromBridge","inputs":[{"name":"tokenAddress","type":"address","internalType":"address"},{"name":"withdrawAddress","type":"address","internalType":"address"},{"name":"amount","type":"uint256","internalType":"uint256"}],"outputs":[{"name":"","type":"bool","internalType":"bool"}],"stateMutability":"nonpayable"},{"type":"function","name":"withdrawEthFromBridge","inputs":[{"name":"withdrawAddress","type":"address","internalType":"address payable"},{"name":"amount","type":"uint256","internalType":"uint256"}],"outputs":[{"name":"","type":"bool","internalType":"bool"}],"stateMutability":"payable"},{"type":"function","name":"withdrawManager","inputs":[],"outputs":[{"name":"","type":"address","internalType":"address"}],"stateMutability":"view"},{"type":"event","name":"ClaimReward","inputs":[{"name":"_user","type":"address","indexed":false,"internalType":"address"},{"name":"startPoolId","type":"uint256","indexed":false,"internalType":"uint256"},{"name":"EndPoolId","type":"uint256","indexed":false,"internalType":"uint256"},{"name":"chainId","type":"uint256","indexed":false,"internalType":"uint256"},{"name":"_token","type":"address","indexed":false,"internalType":"address"},{"name":"Reward","type":"uint256","indexed":false,"internalType":"uint256"}],"anonymous":false},{"type":"event","name":"CompletePoolEvent","inputs":[{"name":"token","type":"address","indexed":true,"internalType":"address"},{"name":"poolIndex","type":"uint256","indexed":false,"internalType":"uint256"},{"name":"chainId","type":"uint256","indexed":false,"internalType":"uint256"}],"anonymous":false},{"type":"event","name":"DepositToken","inputs":[{"name":"tokenAddress","type":"address","indexed":true,"internalType":"address"},{"name":"sender","type":"address","indexed":true,"internalType":"address"},{"name":"amount","type":"uint256","indexed":false,"internalType":"uint256"}],"anonymous":false},{"type":"event","name":"FinalizeERC20","inputs":[{"name":"sourceChainId","type":"uint256","indexed":false,"internalType":"uint256"},{"name":"destChainId","type":"uint256","indexed":false,"internalType":"uint256"},{"name":"sourceTokenAddress","type":"address","indexed":false,"internalType":"address"},{"name":"destTokenAddress","type":"address","indexed":false,"internalType":"address"},{"name":"from","type":"address","indexed":true,"internalType":"address"},{"name":"to","type":"address","indexed":true,"internalType":"address"},{"name":"value","type":"uint256","indexed":false,"internalType":"uint256"}],"anonymous":false},{"type":"event","name":"FinalizeETH","inputs":[{"name":"sourceChainId","type":"uint256","indexed":false,"internalType":"uint256"},{"name":"destChainId","type":"uint256","indexed":false,"internalType":"uint256"},{"name":"sourceTokenAddress","type":"address","indexed":false,"internalType":"address"},{"name":"from","type":"address","indexed":true,"internalType":"address"},{"name":"to","type":"address","indexed":true,"internalType":"address"},{"name":"value","type":"uint256","indexed":false,"internalType":"uint256"}],"anonymous":false},{"type":"event","name":"Initialized","inputs":[{"name":"version","type":"uint64","indexed":false,"internalType":"uint64"}],"anonymous":false},{"type":"event","name":"InitiateERC20","inputs":[{"name":"sourceChainId","type":"uint256","indexed":false,"internalType":"uint256"},{"name":"destChainId","type":"uint256","indexed":false,"internalType":"uint256"},{"name":"sourceTokenAddress","type":"address","indexed":false,"internalType":"address"},{"name":"destTokenAddress","type":"address","indexed":false,"internalType":"address"},{"name":"from","type":"address","indexed":true,"internalType":"address"},{"name":"to","type":"address","indexed":true,"internalType":"address"},{"name":"value","type":"uint256","indexed":false,"internalType":"uint256"}],"anonymous":false},{"type":"event","name":"InitiateETH","inputs":[{"name":"sourceChainId","type":"uint256","indexed":false,"internalType":"uint256"},{"name":"destChainId","type":"uint256","indexed":false,"internalType":"uint256"},{"name":"destTokenAddress","type":"address","indexed":false,"internalType":"address"},{"name":"from","type":"address","indexed":true,"internalType":"address"},{"name":"to","type":"address","indexed":true,"internalType":"address"},{"name":"value","type":"uint256","indexed":false,"internalType":"uint256"}],"anonymous":false},{"type":"event","name":"OwnershipTransferred","inputs":[{"name":"previousOwner","type":"address","indexed":true,"internalType":"address"},{"name":"newOwner","type":"address","indexed":true,"internalType":"address"}],"anonymous":false},{"type":"event","name":"Paused","inputs":[{"name":"account","type":"address","indexed":false,"internalType":"address"}],"anonymous":false},{"type":"event","name":"SetMinStakeAmountEvent","inputs":[{"name":"token","type":"address","indexed":true,"internalType":"address"},{"name":"amount","type":"uint256","indexed":false,"internalType":"uint256"},{"name":"chainId","type":"uint256","indexed":false,"internalType":"uint256"}],"anonymous":false},{"type":"event","name":"SetMinTransferAmount","inputs":[{"name":"_MinTransferAmount","type":"uint256","indexed":false,"internalType":"uint256"}],"anonymous":false},{"type":"event","name":"SetPerFee","inputs":[{"name":"chainId","type":"uint256","indexed":false,"internalType":"uint256"}],"anonymous":false},{"type":"event","name":"SetSupportTokenEvent","inputs":[{"name":"token","type":"address","indexed":true,"internalType":"address"},{"name":"isSupport","type":"bool","indexed":false,"internalType":"bool"},{"name":"chainId","type":"uint256","indexed":false,"internalType":"uint256"}],"anonymous":false},{"type":"event","name":"SetValidChainId","inputs":[{"name":"chainId","type":"uint256","indexed":false,"internalType":"uint256"},{"name":"isValid","type":"bool","indexed":false,"internalType":"bool"}],"anonymous":false},{"type":"event","name":"StakingETHEvent","inputs":[{"name":"user","type":"address","indexed":true,"internalType":"address"},{"name":"chainId","type":"uint256","indexed":false,"internalType":"uint256"},{"name":"amount","type":"uint256","indexed":false,"internalType":"uint256"}],"anonymous":false},{"type":"event","name":"StarkingERC20Event","inputs":[{"name":"user","type":"address","indexed":true,"internalType":"address"},{"name":"token","type":"address","indexed":true,"internalType":"address"},{"name":"chainId","type":"uint256","indexed":false,"internalType":"uint256"},{"name":"amount","type":"uint256","indexed":false,"internalType":"uint256"}],"anonymous":false},{"type":"event","name":"Unpaused","inputs":[{"name":"account","type":"address","indexed":false,"internalType":"address"}],"anonymous":false},{"type":"event","name":"Withdraw","inputs":[{"name":"_user","type":"address","indexed":false,"internalType":"address"},{"name":"startPoolId","type":"uint256","indexed":false,"internalType":"uint256"},{"name":"EndPoolId","type":"uint256","indexed":false,"internalType":"uint256"},{"name":"chainId","type":"uint256","indexed":false,"internalType":"uint256"},{"name":"_token","type":"address","indexed":false,"internalType":"address"},{"name":"Amount","type":"uint256","indexed":false,"internalType":"uint256"},{"name":"Reward","type":"uint256","indexed":false,"internalType":"uint256"}],"anonymous":false},{"type":"event","name":"WithdrawToken","inputs":[{"name":"tokenAddress","type":"address","indexed":true,"internalType":"address"},{"name":"sender","type":"address","indexed":false,"internalType":"address"},{"name":"withdrawAddress","type":"address","indexed":false,"internalType":"address"},{"name":"amount","type":"uint256","indexed":false,"internalType":"uint256"}],"anonymous":false},{"type":"error","name":"AlreadyClaimed","inputs":[]},{"type":"error","name":"ChainIdIsNotSupported","inputs":[{"name":"id","type":"uint256","internalType":"uint256"}]},{"type":"error","name":"ChainIdNotSupported","inputs":[{"name":"chainId","type":"uint256","internalType":"uint256"}]},{"type":"error","name":"EnforcedPause","inputs":[]},{"type":"error","name":"ErrorBlockChain","inputs":[]},{"type":"error","name":"ExpectedPause","inputs":[]},{"type":"error","name":"InvalidInitialization","inputs":[]},{"type":"error","name":"LessThanMinStakeAmount","inputs":[{"name":"minAmount","type":"uint256","internalType":"uint256"},{"name":"providedAmount","type":"uint256","internalType":"uint256"}]},{"type":"error","name":"LessThanMinTransferAmount","inputs":[{"name":"MinTransferAmount","type":"uint256","internalType":"uint256"},{"name":"value","type":"uint256","internalType":"uint256"}]},{"type":"error","name":"LessThanZero","inputs":[{"name":"amount","type":"uint256","internalType":"uint256"}]},{"type":"error","name":"NewPoolIsNotCreate","inputs":[{"name":"PoolIndex","type":"uint256","internalType":"uint256"}]},{"type":"error","name":"NoReward","inputs":[]},{"type":"error","name":"NotEnoughETH","inputs":[]},{"type":"error","name":"NotEnoughToken","inputs":[{"name":"ERC20Address","type":"address","internalType":"address"}]},{"type":"error","name":"NotInitializing","inputs":[]},{"type":"error","name":"OutOfRange","inputs":[{"name":"PoolId","type":"uint256","internalType":"uint256"},{"name":"PoolLength","type":"uint256","internalType":"uint256"}]},{"type":"error","name":"OwnableInvalidOwner","inputs":[{"name":"owner","type":"address","internalType":"address"}]},{"type":"error","name":"OwnableUnauthorizedAccount","inputs":[{"name":"account","type":"address","internalType":"address"}]},{"type":"error","name":"PoolIsCompleted","inputs":[{"name":"poolIndex","type":"uint256","internalType":"uint256"}]},{"type":"error","name":"ReentrancyGuardReentrantCall","inputs":[]},{"type":"error","name":"SafeERC20FailedOperation","inputs":[{"name":"token","type":"address","internalType":"address"}]},{"type":"error","name":"TokenIsAlreadySupported","inputs":[{"name":"token","type":"address","internalType":"address"},{"name":"isSupported","type":"bool","internalType":"bool"}]},{"type":"error","name":"TokenIsNotSupported","inputs":[{"name":"ERC20Address","type":"address","internalType":"address"}]},{"type":"error","name":"TransferETHFailed","inputs":[]},{"type":"error","name":"Zero","inputs":[{"name":"amount","type":"uint256","internalType":"uint256"}]},{"type":"error","name":"sourceChainIdError","inputs":[]},{"type":"error","name":"sourceChainIsDestChainError","inputs":[]}],"bytecode":{"object":"0x60806040523461002757610011610036565b61001961002c565b61760f610263823961760f90f35b610032565b60405190565b5f80fd5b61003e610132565b565b60401c90565b60ff1690565b61005861005d91610040565b610046565b90565b61006a905461004c565b90565b5f0190565b5f1c90565b60018060401b031690565b61008e61009391610072565b610077565b90565b6100a09054610082565b90565b60018060401b031690565b5f1b90565b906100c460018060401b03916100ae565b9181191691161790565b90565b6100e56100e06100ea926100a3565b6100ce565b6100a3565b90565b90565b9061010561010061010c926100d1565b6100ed565b82546100b3565b9055565b610119906100a3565b9052565b9190610130905f60208501940190610110565b565b61013a6101f1565b6101455f8201610060565b6101ce576101545f8201610096565b61016c61016660018060401b036100a3565b916100a3565b03610175575b50565b610188905f60018060401b0391016100f0565b60018060401b036101c57fc7f505b2f371ae2175ee4913f4499e1f2633a7b5936321eed1cdaeb6115181d2916101bc61002c565b9182918261011d565b0390a15f610172565b6101d661002c565b63f92ee8a960e01b8152806101ed6004820161006d565b0390fd5b6101f961024e565b90565b5f90565b90565b90565b61021a61021561021f92610200565b6100ae565b610203565b90565b61024b7ff0c57e16840df040f15088dc2f81fe391c3923bec73e23a9662efc9c229c6a00610206565b90565b6102566101fc565b5061025f610222565b9056fe6080604052600436101561001d575b36611e0c5761001b61616f565b005b6100275f35610386565b806309dc480c1461038157806310875a131461037c57806313e8544e1461037757806318a7cca8146103725780631ca2f1731461036d5780631d31fac0146103685780631f9eda8f1461036357806324237f841461035e5780632c37388b1461035957806331d98b3b14610354578063325e5d431461034f5780633338562c1461034a57806334d34ef51461034557806334fa7f70146103405780633d18b9121461033b5780633f4ba83a146103365780634663cdc8146103315780634dfaef841461032c5780634eb715421461032757806352662af31461032257806354dc027e1461031d5780635a648bc5146103185780635b5b9ea2146103135780635bc65b401461030e5780635c975abb1461030957806360ba33ff14610304578063626417b5146102ff578063650c2276146102fa5780636b7edb55146102f55780636ec9f812146102f05780636f77926b146102eb578063715018a6146102e65780638456cb59146102e15780638da5cb5b146102dc57806394a00978146102d757806396f984e6146102d25780639c014432146102cd578063a69bdf16146102c8578063ab0f9e19146102c3578063b92e6396146102be578063bb8fc7a8146102b9578063cb314fab146102b4578063cb4f04ad146102af578063d73f14e5146102aa578063da228a9b146102a5578063dac29568146102a0578063dbb0481f1461029b578063dd0c346014610296578063e207089314610291578063ec3e9da51461028c578063f2fde38b14610287578063f62a89cf14610282578063f8c8765e1461027d5763f8fcc2aa0361000e57611dd7565b611da0565b611d27565b611cf4565b611cbf565b611c7c565b611c0d565b611bc9565b611b7b565b611b17565b611ac0565b611a5e565b611a2a565b6119ff565b6119cc565b611998565b611936565b611901565b6118c9565b611894565b6117de565b6117ab565b611778565b611743565b611618565b611554565b611521565b6114ec565b611455565b611420565b6113eb565b611344565b611264565b61122f565b6111ea565b611152565b6110ba565b61107d565b610ea5565b610e70565b610d6a565b610d37565b610cf0565b610aa7565b610a38565b6109f6565b6109c2565b610932565b6108fd565b610861565b6107df565b61075b565b6104e3565b61040a565b60e01c90565b60405190565b5f80fd5b5f80fd5b5f9103126103a457565b610396565b1c90565b90565b6103c09060086103c593026103a9565b6103ad565b90565b906103d391546103b0565b90565b6103e260015f906103c8565b90565b90565b6103f1906103e5565b9052565b9190610408905f602085019401906103e8565b565b3461043a5761041a36600461039a565b6104366104256103d6565b61042d61038c565b918291826103f5565b0390f35b610392565b60018060a01b031690565b61045a90600861045f93026103a9565b61043f565b90565b9061046d915461044a565b90565b61047c60055f90610462565b90565b60018060a01b031690565b90565b6104a161049c6104a69261047f565b61048a565b61047f565b90565b6104b29061048d565b90565b6104be906104a9565b90565b6104ca906104b5565b9052565b91906104e1905f602085019401906104c1565b565b34610513576104f336600461039a565b61050f6104fe610470565b61050661038c565b918291826104ce565b0390f35b610392565b5f80fd5b6105259061047f565b90565b6105318161051c565b0361053857565b5f80fd5b9050359061054982610528565b565b610554816103e5565b0361055b57565b5f80fd5b9050359061056c8261054b565b565b9190604083820312610596578061058a610593925f860161053c565b9360200161055f565b90565b610396565b6105a4906104a9565b90565b906105b19061059b565b5f5260205260405f2090565b634e487b7160e01b5f52603260045260245ffd5b5490565b5f5260205f2090565b6105e7816105d1565b821015610601576105f96004916105d5565b910201905f90565b6105bd565b5f1c90565b60ff1690565b61061d61062291610606565b61060b565b90565b61062f9054610611565b90565b60081c90565b60018060a01b031690565b61064f61065491610632565b610638565b90565b6106619054610643565b90565b61067061067591610606565b6103ad565b90565b6106829054610664565b90565b61069090600f6105a7565b9061069a826105d1565b8110156106eb576106aa916105de565b506106b65f8201610625565b916106c25f8301610657565b916106cf60018201610678565b916106e860036106e160028501610678565b9301610678565b90565b5f80fd5b151590565b6106fd906106ef565b9052565b61070a9061051c565b9052565b90959492610759946107486107529261073e60809661073460a088019c5f8901906106f4565b6020870190610701565b60408501906103e8565b60608301906103e8565b01906103e8565b565b346107905761078c61077761077136600461056e565b90610685565b9161078395939561038c565b9586958661070e565b0390f35b610392565b6107a59060086107aa93026103a9565b610638565b90565b906107b89154610795565b90565b6107c760045f906107ad565b90565b91906107dd905f60208501940190610701565b565b3461080f576107ef36600461039a565b61080b6107fa6107bb565b61080261038c565b918291826107ca565b0390f35b610392565b9060208282031261082d5761082a915f0161053c565b90565b610396565b9061083c9061059b565b5f5260205260405f2090565b61085e90610859600d915f92610832565b6103c8565b90565b346108915761088d61087c610877366004610814565b610848565b61088461038c565b918291826103f5565b0390f35b610392565b63ffffffff1690565b6108af9060086108b493026103a9565b610896565b90565b906108c2915461089f565b90565b6108cf5f806108b7565b90565b63ffffffff1690565b6108e4906108d2565b9052565b91906108fb905f602085019401906108db565b565b3461092d5761090d36600461039a565b6109296109186108c5565b61092061038c565b918291826108e8565b0390f35b610392565b346109625761095e61094d610948366004610814565b611e14565b61095561038c565b918291826103f5565b0390f35b610392565b6080818303126109a85761097d825f830161055f565b926109a561098e846020850161055f565b9361099c816040860161053c565b9360600161053c565b90565b610396565b91906109c0905f602085019401906106f4565b565b6109ed6109dc6109d3366004610967565b92919091612317565b6109e461038c565b918291826109ad565b0390f35b5f0190565b34610a2457610a0636600461039a565b610a0e6123e5565b610a1661038c565b80610a20816109f1565b0390f35b610392565b610a3560035f906103c8565b90565b34610a6857610a4836600461039a565b610a64610a53610a29565b610a5b61038c565b918291826103f5565b0390f35b610392565b9091606082840312610aa257610a9f610a88845f850161053c565b93610a96816020860161053c565b9360400161055f565b90565b610396565b34610ad657610ac0610aba366004610a6d565b91612529565b610ac861038c565b80610ad2816109f1565b0390f35b610392565b5f80fd5b601f801991011690565b634e487b7160e01b5f52604160045260245ffd5b90610b0790610adf565b810190811067ffffffffffffffff821117610b2157604052565b610ae9565b90610b39610b3261038c565b9283610afd565b565b67ffffffffffffffff8111610b535760208091020190565b610ae9565b5f80fd5b5f80fd5b610b69816108d2565b03610b7057565b5f80fd5b90503590610b8182610b60565b565b610b8c816106ef565b03610b9357565b5f80fd5b90503590610ba482610b83565b565b919060e083820312610c3a57610c3390610bc060e0610b26565b93610bcd825f8301610b74565b5f860152610bde8260208301610b74565b6020860152610bf0826040830161053c565b6040860152610c02826060830161055f565b6060860152610c14826080830161055f565b6080860152610c268260a0830161055f565b60a086015260c001610b97565b60c0830152565b610b5c565b90929192610c54610c4f82610b3b565b610b26565b9381855260e0602086019202830192818411610c9357915b838310610c795750505050565b602060e091610c888486610ba6565b815201920191610c6c565b610b58565b9080601f83011215610cb657816020610cb393359101610c3f565b90565b610adb565b90602082820312610ceb575f82013567ffffffffffffffff8111610ce657610ce39201610c98565b90565b610518565b610396565b610d03610cfe366004610cbb565b612bb6565b610d0b61038c565b80610d15816109f1565b0390f35b90602082820312610d3257610d2f915f0161055f565b90565b610396565b34610d6557610d4f610d4a366004610d19565b612c64565b610d5761038c565b80610d61816109f1565b0390f35b610392565b34610d9b57610d97610d86610d80366004610a6d565b91612e8e565b610d8e61038c565b918291826109ad565b0390f35b610392565b5190565b60209181520190565b60200190565b610dbc9061051c565b9052565b610dc9906103e5565b9052565b90602080610def93610de55f8201515f860190610db3565b0151910190610dc0565b565b90610dfe81604093610dcd565b0190565b60200190565b90610e25610e1f610e1884610da0565b8093610da4565b92610dad565b905f5b818110610e355750505090565b909192610e4e610e486001928651610df1565b94610e02565b9101919091610e28565b610e6d9160208201915f818403910152610e08565b90565b34610ea057610e8036600461039a565b610e9c610e8b612f9a565b610e9361038c565b91829182610e58565b0390f35b610392565b34610ed357610eb536600461039a565b610ebd613311565b610ec561038c565b80610ecf816109f1565b0390f35b610392565b90610ee29061059b565b5f5260205260405f2090565b5490565b5f5260205f2090565b610f0481610eee565b821015610f1e57610f16600591610ef2565b910201905f90565b6105bd565b610f2f610f3491610606565b610896565b90565b610f419054610f23565b90565b60201c90565b610f56610f5b91610f44565b610896565b90565b610f689054610f4a565b90565b60401c90565b610f7d610f8291610f6b565b610638565b90565b610f8f9054610f71565b90565b610f9d90600e610ed8565b90610fa782610eee565b81101561101157610fb791610efb565b50610fc35f8201610f37565b91610fcf5f8301610f5e565b91610fdb5f8201610f85565b91610fe860018301610678565b91610ff560028201610678565b9161100e600461100760038501610678565b9301610625565b90565b5f80fd5b949290979695939160e08601985f870161102e916108db565b6020860161103b916108db565b6040850161104891610701565b60608401611055916103e8565b60808301611062916103e8565b60a0820161106f916103e8565b60c00161107b916106f4565b565b346110b5576110b161109961109336600461056e565b90610f92565b936110a897959793919361038c565b97889788611015565b0390f35b610392565b346110e9576110d36110cd36600461056e565b90613919565b6110db61038c565b806110e5816109f1565b0390f35b610392565b909160c08284031261114d57611106835f840161055f565b92611114816020850161055f565b92611122826040830161053c565b9261114a611133846060850161053c565b93611141816080860161053c565b9360a00161055f565b90565b610396565b34611189576111856111746111683660046110ee565b94939093929192613d34565b61117c61038c565b918291826109ad565b0390f35b610392565b6111979061047f565b90565b6111a38161118e565b036111aa57565b5f80fd5b905035906111bb8261119a565b565b91906040838203126111e557806111d96111e2925f86016111ae565b9360200161055f565b90565b610396565b6112126112016111fb3660046111bd565b90614023565b61120961038c565b918291826109ad565b0390f35b61122c90611227600c915f92610832565b6103c8565b90565b3461125f5761125b61124a611245366004610814565b611216565b61125261038c565b918291826103f5565b0390f35b610392565b346112925761127436600461039a565b61127c6140c2565b61128461038c565b8061128e816109f1565b0390f35b610392565b6112a0906108d2565b9052565b6112ad906106ef565b9052565b9060c08061132d936112c95f8201515f860190611297565b6112db60208201516020860190611297565b6112ed60408201516040860190610db3565b6112ff60608201516060860190610dc0565b61131160808201516080860190610dc0565b61132360a082015160a0860190610dc0565b01519101906112a4565b565b9190611342905f60e085019401906112b1565b565b346113755761137161136061135a36600461056e565b90614209565b61136861038c565b9182918261132f565b0390f35b610392565b61138e611389611393926103e5565b61048a565b6103e5565b90565b906113a09061137a565b5f5260205260405f2090565b6113bc9060086113c193026103a9565b61060b565b90565b906113cf91546113ac565b90565b6113e8906113e36009915f92611396565b6113c4565b90565b3461141b57611417611406611401366004610d19565b6113d2565b61140e61038c565b918291826109ad565b0390f35b610392565b346114505761143036600461039a565b61144c61143b614232565b61144361038c565b918291826109ad565b0390f35b610392565b346114865761148261147161146b36600461056e565b90614366565b61147961038c565b918291826109ad565b0390f35b610392565b5490565b5f5260205f2090565b6114a18161148b565b8210156114bb576114b360019161148f565b910201905f90565b6105bd565b60066114cb8161148b565b8210156114e8576114e5916114df91611498565b906107ad565b90565b5f80fd5b3461151c57611518611507611502366004610d19565b6114c0565b61150f61038c565b918291826107ca565b0390f35b610392565b3461154f57611539611534366004610d19565b61441b565b61154161038c565b8061154b816109f1565b0390f35b610392565b346115835761156d611567366004610a6d565b9161474a565b61157561038c565b8061157f816109f1565b0390f35b610392565b909161012082840312611613576115a1835f840161055f565b926115af816020850161055f565b926115bd826040830161053c565b926115cb836060840161053c565b926115d9816080850161053c565b926115e78260a0830161053c565b926116106115f88460c0850161055f565b936116068160e0860161055f565b936101000161055f565b90565b610396565b346116525761164e61163d61162e366004611588565b97969096959195949294614b8f565b61164561038c565b918291826109ad565b0390f35b610392565b5190565b60209181520190565b60200190565b906080806116c2936116825f8201515f8601906112a4565b61169460208201516020860190610db3565b6116a660408201516040860190610dc0565b6116b860608201516060860190610dc0565b0151910190610dc0565b565b906116d18160a09361166a565b0190565b60200190565b906116f86116f26116eb84611657565b809361165b565b92611664565b905f5b8181106117085750505090565b90919261172161171b60019286516116c4565b946116d5565b91019190916116fb565b6117409160208201915f8184039101526116db565b90565b346117735761176f61175e611759366004610814565b614cd8565b61176661038c565b9182918261172b565b0390f35b610392565b346117a65761178836600461039a565b611790614d44565b61179861038c565b806117a2816109f1565b0390f35b610392565b346117d9576117bb36600461039a565b6117c3614d6a565b6117cb61038c565b806117d5816109f1565b0390f35b610392565b3461180e576117ee36600461039a565b61180a6117f9614d78565b61180161038c565b918291826107ca565b0390f35b610392565b91906101008382031261188f5761182c815f850161055f565b9261183a826020830161055f565b92611848836040840161053c565b92611856816060850161053c565b92611864826080830161053c565b9261188c6118758460a0850161055f565b936118838160c0860161055f565b9360e00161055f565b90565b610396565b6118c56118b46118a5366004611813565b96959095949194939293615004565b6118bc61038c565b918291826109ad565b0390f35b6118d436600461039a565b6118dc6152eb565b6118e461038c565b806118ee816109f1565b0390f35b6118fe60075f906107ad565b90565b346119315761191136600461039a565b61192d61191c6118f2565b61192461038c565b918291826107ca565b0390f35b610392565b346119665761194636600461039a565b6119626119516152f5565b61195961038c565b91829182610e58565b0390f35b610392565b91906040838203126119935780611987611990925f860161053c565b93602001610b97565b90565b610396565b346119c7576119b16119ab36600461196b565b9061562c565b6119b961038c565b806119c3816109f1565b0390f35b610392565b346119fa576119e46119df366004610d19565b6156ae565b6119ec61038c565b806119f6816109f1565b0390f35b610392565b611a0a36600461039a565b611a26611a15615774565b611a1d61038c565b918291826109ad565b0390f35b34611a5957611a43611a3d36600461056e565b90615850565b611a4b61038c565b80611a55816109f1565b0390f35b610392565b34611a8e57611a8a611a79611a74366004610814565b61585c565b611a8161038c565b918291826103f5565b0390f35b610392565b9190604083820312611abb5780611aaf611ab8925f860161055f565b93602001610b97565b90565b610396565b34611aef57611ad9611ad3366004611a93565b90615920565b611ae161038c565b80611aeb816109f1565b0390f35b610392565b73eeeeeeeeeeeeeeeeeeeeeeeeeeeeeeeeeeeeeeee90565b611b14611af4565b90565b34611b4757611b2736600461039a565b611b43611b32611b0c565b611b3a61038c565b918291826107ca565b0390f35b610392565b90611b569061059b565b5f5260205260405f2090565b611b7890611b73600a915f92611b4c565b6113c4565b90565b34611bab57611ba7611b96611b91366004610814565b611b62565b611b9e61038c565b918291826109ad565b0390f35b610392565b611bc690611bc1600b915f92610832565b6103c8565b90565b34611bf957611bf5611be4611bdf366004610814565b611bb0565b611bec61038c565b918291826103f5565b0390f35b610392565b611c0a60025f906103c8565b90565b34611c3d57611c1d36600461039a565b611c39611c28611bfe565b611c3061038c565b918291826103f5565b0390f35b610392565b9091606082840312611c7757611c74611c5d845f850161053c565b93611c6b8160208601610b97565b93604001610b74565b90565b610396565b34611cab57611c95611c8f366004611c42565b91615bd8565b611c9d61038c565b80611ca7816109f1565b0390f35b610392565b611cbc60085f906107ad565b90565b34611cef57611ccf36600461039a565b611ceb611cda611cb0565b611ce261038c565b918291826107ca565b0390f35b610392565b34611d2257611d0c611d07366004610814565b615c51565b611d1461038c565b80611d1e816109f1565b0390f35b610392565b34611d5557611d3f611d3a366004610d19565b615d00565b611d4761038c565b80611d51816109f1565b0390f35b610392565b608081830312611d9b57611d70825f830161053c565b92611d98611d81846020850161053c565b93611d8f816040860161053c565b9360600161053c565b90565b610396565b34611dd257611dbc611db3366004611d5a565b92919091616142565b611dc461038c565b80611dce816109f1565b0390f35b610392565b34611e0757611e03611df2611ded366004610814565b616150565b611dfa61038c565b918291826103f5565b0390f35b610392565b5f80fd5b5f90565b611e2b611e3091611e23611e10565b50600b610832565b610678565b90565b5f90565b90611e4c94939291611e4761617a565b611e4f565b90565b90611e6494939291611e5f6161d7565b6120b8565b90611e6d61624e565b565b916020611e90929493611e8960408201965f8301906103e8565b01906103e8565b565b634e487b7160e01b5f52601160045260245ffd5b611eb5611ebb919392936103e5565b926103e5565b8201809211611ec657565b611e92565b5f1b90565b90611edc5f1991611ecb565b9181191691161790565b90565b90611efe611ef9611f059261137a565b611ee6565b8254611ed0565b9055565b611f18611f1e919392936103e5565b926103e5565b91611f2a8382026103e5565b928184041490151715611f3957565b611e92565b90565b611f55611f50611f5a92611f3e565b61048a565b6103e5565b90565b634e487b7160e01b5f52601260045260245ffd5b611f7d611f83916103e5565b916103e5565b908115611f8e570490565b611f5d565b611fa2611fa8919392936103e5565b926103e5565b8203918211611fb357565b611e92565b611fc4611fc991610606565b61043f565b90565b611fd69054611fb8565b90565b5f80fd5b60e01b90565b5f910312611fed57565b610396565b959391989796949290986101008701995f880161200e916103e8565b6020870161201b916103e8565b6040860161202891610701565b6060850161203591610701565b6080840161204291610701565b60a0830161204f91610701565b60c0820161205c916103e8565b60e001612068916103e8565b565b61207261038c565b3d5f823e3d90fd5b6120af6120b6946120a560609498979561209b608086019a5f8701906103e8565b60208501906103e8565b6040830190610701565b01906103e8565b565b93919392909250826120d26120cc466103e5565b916103e5565b036122f4576120e96120e38561626b565b156106ef565b6122ce57346121096121036120fe6001610678565b6103e5565b916103e5565b1061229d5761213d34612137612128600b612122611af4565b90610832565b9161213283610678565b611ea6565b90611ee9565b6121666121543461214e6002610678565b90611f09565b612160620f4240611f41565b90611f71565b92612172348590611f93565b936121a28161219c61218d600c612187611af4565b90610832565b9161219783610678565b611ea6565b90611ee9565b6121b46121af6005611fcc565b6104b5565b9063a8f0849e91469088936121c7611af4565b90879033928a968c863b15612298575f986121f6968a96612201956121ea61038c565b9d8e9c8d9b8c9a611fdd565b8a5260048a01611ff2565b03925af1801561229357612267575b5093909361225f33939461224d6122477f0c2b5a57887e542335dea57bfc17d53dc16f67d219e0cc41ec1970283524abcc9661059b565b9661059b565b9661225661038c565b9485948561207a565b0390a3600190565b612286905f3d811161228c575b61227e8183610afd565b810190611fe3565b5f612210565b503d612274565b61206a565b611fd9565b6122a76001610678565b34906122ca6122b461038c565b9283926358f8331360e11b845260048401611e6f565b0390fd5b6122f0846122da61038c565b918291632ef6974160e11b8352600483016103f5565b0390fd5b6122fc61038c565b631a26aa4d60e21b815280612313600482016109f1565b0390fd5b9061232b939291612326611e33565b611e37565b90565b6123366161d7565b61233e612348565b61234661624e565b565b61235061617a565b612358612388565b565b90565b61237161236c6123769261235a565b61048a565b6103e5565b90565b600161238591016103e5565b90565b6123915f61235d565b5b806123ae6123a86123a3600661148b565b6103e5565b916103e5565b10156123e2576123dd906123d8336123d16123cb60068590611498565b906107ad565b5f9161652f565b612379565b612392565b50565b6123ed61232e565b565b6123fb61240091610606565b610638565b90565b61240d90546123ef565b90565b60209181520190565b60407f6c6c20746869732066756e6374696f6e00000000000000000000000000000000917f54726561737572654d616e616765723a6f6e6c7957697468647261774d616e615f8201527f676572206f6e6c79207769746864726177206d616e616765722063616e20636160208201520152565b6124996050606092612410565b6124a281612419565b0190565b6124bb9060208101905f81830391015261248c565b90565b156124c557565b6124cd61038c565b62461bcd60e51b8152806124e3600482016124a6565b0390fd5b9061251792916125123361250c6125066125016008612403565b61051c565b9161051c565b146124be565b612519565b565b91612526929190916169da565b50565b9061253492916124e7565b565b60207f2072656c617965722063616c6c20746869732066756e6374696f6e0000000000917f54726561737572654d616e616765723a6f6e6c7952654c61796572206f6e6c795f8201520152565b612590603b604092612410565b61259981612536565b0190565b6125b29060208101905f818303910152612583565b90565b156125bc57565b6125c461038c565b62461bcd60e51b8152806125da6004820161259d565b0390fd5b61260c90612607336126016125fb6125f66004612403565b61051c565b9161051c565b146125b5565b612965565b565b5190565b9061261c8261260e565b81101561262d576020809102010190565b6105bd565b61263c905161051c565b90565b90565b61265661265161265b9261263f565b61048a565b6103e5565b90565b9061266a60ff91611ecb565b9181191691161790565b61267d906106ef565b90565b90565b9061269861269361269f92612674565b612680565b825461265e565b9055565b90565b6126b26126b8916108d2565b916108d2565b019063ffffffff82116126c757565b611e92565b6126d660e0610b26565b90565b906126e3906108d2565b9052565b906126f19061051c565b9052565b906126ff906103e5565b9052565b9061270d906106ef565b9052565b5f5260205f2090565b5490565b6127278161271a565b82101561274157612739600591612711565b910201905f90565b6105bd565b634e487b7160e01b5f525f60045260245ffd5b61276390516108d2565b90565b9061277563ffffffff91611ecb565b9181191691161790565b61279361278e612798926108d2565b61048a565b6108d2565b90565b90565b906127b36127ae6127ba9261277f565b61279b565b8254612766565b9055565b60201b90565b906127d767ffffffff00000000916127be565b9181191691161790565b906127f66127f16127fd9261277f565b61279b565b82546127c4565b9055565b60401b90565b9061282168010000000000000000600160e01b0391612801565b9181191691161790565b90565b9061284361283e61284a9261059b565b61282b565b8254612807565b9055565b61285890516103e5565b90565b61286590516106ef565b90565b9061290e60c060046129149461288b5f82016128855f8801612759565b9061279e565b6128a35f820161289d60208801612759565b906127e1565b6128bb5f82016128b560408801612632565b9061282e565b6128d4600182016128ce6060880161284e565b90611ee9565b6128ed600282016128e76080880161284e565b90611ee9565b6129066003820161290060a0880161284e565b90611ee9565b01920161285b565b90612683565b565b91906129275761292591612868565b565b612746565b1b90565b9081549168010000000000000000831015612960578261295891600161295e9501815561271e565b90612916565b565b610ae9565b61296e5f61235d565b5b8061298a61298461297f8561260e565b6103e5565b916103e5565b1015612bb2576129a760406129a0848490612612565b5101612632565b6129ce6129be6129b9600e8490610ed8565b610eee565b6129c86001612642565b90611f93565b906129f3600160046129ec6129e5600e8690610ed8565b8690610efb565b5001612683565b81612a06612a005f61235d565b916103e5565b03612b5a575b600e81612a1891610ed8565b82612a2291610efb565b505f01612a2e90610f5e565b600e82612a3a91610ed8565b612a43906126a3565b9080612a4e5f610f37565b612a57916126a6565b83600e85612a6491610ed8565b86612a6e91610efb565b50600101612a7b90610678565b5f905f925f94612a896126cc565b965f880190612a97916126d9565b6020870190612aa5916126d9565b6040860190612ab3916126e7565b6060850190612ac1916126f5565b612aca9061235d565b6080840190612ad8916126f5565b612ae19061235d565b60a0830190612aef916126f5565b60c0820190612afd91612703565b612b0691612930565b46917fe31e15753cd173232924147d9c429fccfb91705d3778d5eb2735a5d302ea5e8191612b339061059b565b92612b3c61038c565b918291612b499183611e6f565b0390a2612b5590612379565b61296f565b612b90612b71612b6c600c8490610832565b610678565b6002612b89612b82600e8690610ed8565b8690610efb565b5001611ee9565b612bad612b9c5f61235d565b612ba8600c8490610832565b611ee9565b612a0c565b5050565b612bbf906125de565b565b612bd290612bcd6161d7565b612bdc565b612bda61624e565b565b612bed90612be861617a565b612bef565b565b80612c15612c0f612c0a612c05600f33906105a7565b6105d1565b6103e5565b916103e5565b1015612c2a57612c289033905f91616c3e565b565b612c3e612c39600f33906105a7565b6105d1565b90612c60612c4a61038c565b92839263abe5c32f60e01b845260048401611e6f565b0390fd5b612c6d90612bc1565b565b90612c83939291612c7e61617a565b612c86565b90565b90612cb7939291612cb233612cac612ca6612ca16008612403565b61051c565b9161051c565b146124be565b612dd2565b90565b60407f20636f6e74726163740000000000000000000000000000000000000000000000917f506f6f6c4d616e6167657220776974686472617745746846726f6d42726964675f8201527f653a20496e73756666696369656e7420746f6b656e2062616c616e636520696e60208201520152565b612d3a6049606092612410565b612d4381612cba565b0190565b612d5c9060208101905f818303910152612d2d565b90565b15612d6657565b612d6e61038c565b62461bcd60e51b815280612d8460048201612d47565b0390fd5b612d919061048d565b90565b612d9d90612d88565b90565b604090612dc9612dd09496959396612dbf60608401985f850190610701565b6020830190610701565b01906103e8565b565b92919250612e06612ded612de8600b8490610832565b610678565b612dff612df9856103e5565b916103e5565b1015612d5f565b612e2e82612e28612e19600b8590610832565b91612e2383610678565b611f93565b90611ee9565b612e42612e3a82612d94565b84849161705d565b9033929092612e86612e747f9ca7c1e047552a8048d924a5a8d3c150eb861086a72a9100e5f19d1176c1b7469461059b565b94612e7d61038c565b93849384612da0565b0390a2600190565b90612ea19291612e9c611e33565b612c6f565b90565b606090565b67ffffffffffffffff8111612ec15760208091020190565b610ae9565b90612ed8612ed383612ea9565b610b26565b918252565b612ee76040610b26565b90565b5f90565b5f90565b612efa612edd565b9060208083612f07612eea565b815201612f12612eee565b81525050565b612f20612ef2565b90565b5f5b828110612f3157505050565b602090612f3c612f18565b8184015201612f25565b90612f6b612f5383612ec6565b92602080612f618693612ea9565b9201910390612f23565b565b612f776040610b26565b90565b90612f8482610da0565b811015612f95576020809102010190565b6105bd565b612fa2612ea4565b50612fb5612fb0600661148b565b612f46565b612fbe5f61235d565b5b80612fdb612fd5612fd0600661148b565b6103e5565b916103e5565b10156132f157612fea5f61235d565b92612ff45f61235d565b5b8061301b61301561301061300b600f33906105a7565b6105d1565b6103e5565b916103e5565b1015613292576130425f61303b613034600f33906105a7565b84906105de565b5001610657565b61306861306261305d61305760068890611498565b906107ad565b61051c565b9161051c565b1461307d575b613078905b612379565b612ff5565b6130a25f61309b613094600f9895979833906105a7565b84906105de565b5001610625565b613285576130e16130d16130cc600e6130c66130c060068990611498565b906107ad565b90610ed8565b610eee565b6130db6001612642565b90611f93565b9361310460036130fd6130f6600f33906105a7565b85906105de565b5001610678565b926131276001613120613119600f33906105a7565b86906105de565b5001610678565b8061313a613134896103e5565b916103e5565b1161327657905b8161315461314e896103e5565b916103e5565b101561326b57816131a76131a161319c61318c6131878b61318161317b600e926006611498565b906107ad565b90610ed8565b610eee565b6131966001612642565b90611f93565b6103e5565b916103e5565b116132455761323961323f916132336131f7896131f160026131ea6131e38d946131dd6131d7600e926006611498565b906107ad565b90610ed8565b8a90610efb565b5001610678565b90611f09565b61322d600161322661321f8d613219613213600e926006611498565b906107ad565b90610ed8565b8990610efb565b5001610678565b90611f71565b90611ea6565b91612379565b90613141565b6132678261325161038c565b918291637d58ebb960e01b8352600483016103f5565b0390fd5b96955050915061306e565b50959450915061307890613073565b6130789094939194613073565b5092906132e56132ec926132d26132b46132ae60068690611498565b906107ad565b916132c96132c0612f6d565b935f85016126e7565b602083016126f5565b8483916132df8383612f7a565b52612f7a565b5150612379565b612fbf565b5090565b6132fd6170ab565b613305613307565b565b61330f617169565b565b6133196132f5565b565b9061332d916133286161d7565b613337565b61333561624e565b565b906133499161334461617a565b61351e565b565b613354906104a9565b90565b613360906104a9565b90565b905051906133708261054b565b565b9060208282031261338b57613388915f01613363565b90565b610396565b61339990612642565b9052565b91906133b0905f60208501940190613390565b565b6133c66133c16133cb926108d2565b61048a565b6103e5565b90565b90565b6133db60a0610b26565b90565b5f5260205f2090565b5490565b6133f4816133e7565b82101561340e576134066004916133de565b910201905f90565b6105bd565b60081b90565b9061342c610100600160a81b0391613413565b9181191691161790565b9061344b6134466134529261059b565b61282b565b8254613419565b9055565b906134cb608060036134d1946134795f82016134735f880161285b565b90612683565b6134915f820161348b60208801612632565b90613436565b6134aa600182016134a46040880161284e565b90611ee9565b6134c3600282016134bd6060880161284e565b90611ee9565b01920161284e565b90611ee9565b565b91906134e4576134e291613456565b565b612746565b90815491680100000000000000008310156135195782613511916001613517950181556133eb565b906134d3565b565b610ae9565b9061353c613536613531600a8590611b4c565b610625565b156106ef565b6138f3578061356661356061355b613556600d8790610832565b610678565b6103e5565b916103e5565b106138bb576135b490602061358261357d85612d94565b61334b565b6370a08231906135a961359430613357565b9261359d61038c565b96879485938493611fdd565b8352600483016107ca565b03915afa9182156138b657613630926135eb915f91613888575b50916135d985612d94565b90336135e430613357565b9192617173565b60206135fe6135f985612d94565b61334b565b6370a082319061362561361030613357565b9261361961038c565b96879485938493611fdd565b8352600483016107ca565b03915afa80156138835761364b925f91613855575b50611f93565b9061366061365b600e8390610ed8565b610eee565b61367261366c5f61235d565b916103e5565b1461382e5761369e61368e613689600e8490610ed8565b610eee565b6136986001612642565b90611f93565b6136bf5f6136b86136b1600e8690610ed8565b8490610efb565b5001610f37565b6136d16136cb426103e5565b916133b2565b115f146137f55761377d9061374b6136f36136ee600f33906105a7565b6133ce565b5f906137468761373d6137348761372f5f916137268d61371d6137146133d1565b9b5f8d01612703565b60208b016126e7565b604089016126f5565b61235d565b606086016126f5565b608084016126f5565b6134e9565b61377760016137668693613761600e8890610ed8565b610efb565b50019161377283610678565b611ea6565b90611ee9565b6137a58261379f613790600b8590610832565b9161379a83610678565b611ea6565b90611ee9565b3346926137db6137d57fc09c10a763080421c3ba4e1647ac5f55a8b14d0697dd693ddcd559e2eb82d6279361059b565b9361059b565b936137f06137e761038c565b92839283611e6f565b0390a3565b61380c61382a916138066001612642565b90611ea6565b61381461038c565b918291637d58ebb960e01b8352600483016103f5565b0390fd5b613851600161383b61038c565b918291637d58ebb960e01b83526004830161339d565b0390fd5b613876915060203d811161387c575b61386e8183610afd565b810190613372565b5f613645565b503d613864565b61206a565b6138a9915060203d81116138af575b6138a18183610afd565b810190613372565b5f6135ce565b503d613897565b61206a565b6138ce6138c983600d610832565b610678565b6138ef6138d961038c565b9283926327500c6d60e21b845260048401611e6f565b0390fd5b613915826138ff61038c565b9182916305fd61ad60e01b8352600483016107ca565b0390fd5b906139239161331b565b565b9061393c96959493929161393761617a565b61393f565b90565b906139569695949392916139516161d7565b6139ae565b9061395f61624e565b565b909594926139ac9461399b6139a59261399160809661398760a088019c5f8901906103e8565b60208701906103e8565b6040850190610701565b6060830190610701565b01906103e8565b565b9590949593929350846139c96139c3466103e5565b916103e5565b03613d11576139e06139da8361626b565b156106ef565b613ceb57613a016139fb6139f6600a8690611b4c565b610625565b156106ef565b613cc557613a4d6020613a1b613a1686612d94565b61334b565b6370a0823190613a42613a2d30613357565b92613a3661038c565b95869485938493611fdd565b8352600483016107ca565b03915afa908115613cc0575f91613c92575b50613a7e613a6c85612d94565b33613a7630613357565b908592617173565b613ac66020613a94613a8f87612d94565b61334b565b6370a0823190613abb613aa630613357565b92613aaf61038c565b95869485938493611fdd565b8352600483016107ca565b03915afa918215613c8d57613b0b92613ae6925f91613c5f575b50611f93565b91613b05613af6600b8790610832565b91613b0083610678565b611ea6565b90611ee9565b613b3f613b37613b2583613b1f6002610678565b90611f09565b613b31620f4240611f41565b90611f71565b918290611f93565b94613b6882613b62613b53600c8890610832565b91613b5d83610678565b611ea6565b90611ee9565b613b7a613b756005611fcc565b6104b5565b9163a8f0849e928290859487908b9033928b968d863b15613c5a575f98613bb5968a96613bc095613ba961038c565b9e8f9c8d9b8c9a611fdd565b8a5260048a01611ff2565b03925af1918215613c5557613c2192613c29575b5091929533949590613c0f613c097f24136187bad583830e5c55416af2a551e1750b2b95b0e997565fba1badf10ed39761059b565b9761059b565b97613c1861038c565b95869586613961565b0390a3600190565b613c48905f3d8111613c4e575b613c408183610afd565b810190611fe3565b5f613bd4565b503d613c36565b61206a565b611fd9565b613c80915060203d8111613c86575b613c788183610afd565b810190613372565b5f613ae0565b503d613c6e565b61206a565b613cb3915060203d8111613cb9575b613cab8183610afd565b810190613372565b5f613a5f565b503d613ca1565b61206a565b613ce783613cd161038c565b9182916305fd61ad60e01b8352600483016107ca565b0390fd5b613d0d82613cf761038c565b918291632ef6974160e11b8352600483016103f5565b0390fd5b613d1961038c565b631a26aa4d60e21b815280613d30600482016109f1565b0390fd5b90613d4a9594939291613d45611e33565b613925565b90565b90613d609291613d5b61617a565b613d63565b90565b90613d939291613d8e33613d88613d82613d7d6008612403565b61051c565b9161051c565b146124be565b613f37565b90565b60407f6f6e747261637400000000000000000000000000000000000000000000000000917f506f6f6c4d616e6167657220776974686472617745746846726f6d42726964675f8201527f653a20696e73756666696369656e74204554482062616c616e636520696e206360208201520152565b613e166047606092612410565b613e1f81613d96565b0190565b613e389060208101905f818303910152613e09565b90565b15613e4257565b613e4a61038c565b62461bcd60e51b815280613e6060048201613e23565b0390fd5b613e6d906104a9565b90565b905090565b613e805f8092613e70565b0190565b613e8d90613e75565b90565b67ffffffffffffffff8111613eae57613eaa602091610adf565b0190565b610ae9565b90613ec5613ec083613e90565b610b26565b918252565b606090565b3d5f14613eea57613edf3d613eb3565b903d5f602084013e5b565b613ef2613eca565b90613ee8565b613f0190613e64565b9052565b604090613f2e613f359496959396613f2460608401985f850190610701565b6020830190613ef8565b01906103e8565b565b91909150613f61613f4730613357565b31613f5a613f54846103e5565b916103e5565b1015613e3b565b613f9081613f8a613f7b600b613f75611af4565b90610832565b91613f8583610678565b611f93565b90611ee9565b613fc55f80613f9e85613e64565b84613fa761038c565b9081613fb281613e84565b03925af1613fbe613ecf565b50156106ef565b61401d57613fd1611af4565b90339290926140156140037f9ca7c1e047552a8048d924a5a8d3c150eb861086a72a9100e5f19d1176c1b7469461059b565b9461400c61038c565b93849384613f05565b0390a2600190565b50505f90565b9061403591614030611e33565b613d4d565b90565b6140406161d7565b614048614052565b61405061624e565b565b61405a61617a565b614062614064565b565b61406d5f61235d565b5b8061408a61408461407f600661148b565b6103e5565b916103e5565b10156140bf576140ba906140b5336140ad6140a760068590611498565b906107ad565b60019161652f565b612379565b61406e565b50565b6140ca614038565b565b6140d660e0610b26565b90565b5f90565b5f90565b6140e96140cc565b906020808080808080886140fb6140d9565b8152016141066140d9565b815201614111612eea565b81520161411c612eee565b815201614127612eee565b815201614132612eee565b81520161413d6140dd565b81525050565b61414b6140e1565b90565b906141fb6141f2600461415f6140cc565b9461417661416e5f8301610f37565b5f88016126d9565b61418d6141845f8301610f5e565b602088016126d9565b6141a461419b5f8301610f85565b604088016126e7565b6141bc6141b360018301610678565b606088016126f5565b6141d46141cb60028301610678565b608088016126f5565b6141ec6141e360038301610678565b60a088016126f5565b01610625565b60c08401612703565b565b6142069061414e565b90565b61422f916142246142299261421c614143565b50600e610ed8565b610efb565b506141fd565b90565b61423a611e33565b5061424d5f6142476171c3565b01610625565b90565b90614263929161425e61617a565b614266565b90565b9061427992916142746161d7565b614284565b9061428261624e565b565b506142a261429c614297600a8490611b4c565b610625565b156106ef565b614340576142c46142b282612d94565b336142bc30613357565b908592617173565b6142ec826142e66142d7600b8590610832565b916142e183610678565b611ea6565b90611ee9565b903390916143386143266143207f4b3f81827ede20c81afbf1bb77b954afcdcae24d391d99042310cb1d9210dd579361059b565b9361059b565b9361432f61038c565b918291826103f5565b0390a3600190565b6143629061434c61038c565b9182916305fd61ad60e01b8352600483016107ca565b0390fd5b9061437891614373611e33565b614250565b90565b6143a9906143a43361439e6143986143936004612403565b61051c565b9161051c565b146125b5565b6143b6565b565b156143b257565b5f80fd5b6143d5816143cf6143c9620f4240611f41565b916103e5565b106143ab565b6143e0816002611ee9565b6144167f342f865a411cdd799cc2fde1e27981fc427f5c8a31c79066a6bcc0db11729da09161440d61038c565b918291826103f5565b0390a1565b6144249061437b565b565b9061445692916144513361444b6144456144406008612403565b61051c565b9161051c565b146124be565b6144f2565b565b5f7f4e6f7420656e6f7567682062616c616e63650000000000000000000000000000910152565b61448c6012602092612410565b61449581614458565b0190565b6144ae9060208101905f81830391015261447f565b90565b156144b857565b6144c061038c565b62461bcd60e51b8152806144d660048201614499565b0390fd5b6144e39061048d565b90565b6144ef906144da565b90565b91909161451261450c614507600a8490611b4c565b610625565b156106ef565b6147245761454661452d614528600b8490610832565b610678565b61453f614539856103e5565b916103e5565b10156144b1565b61456e82614568614559600b8590610832565b9161456383610678565b611f93565b90611ee9565b8061458861458261457d611af4565b61051c565b9161051c565b145f1461463c575061459930613357565b316145ac6145a6836103e5565b916103e5565b10614619575f80916145c86145c36145ef956144e6565b613e64565b906145d161038c565b90816145dc81613e84565b03925af16145e8613ecf565b50156106ef565b6145f6575b565b6145fe61038c565b6389a360eb60e01b815280614615600482016109f1565b0390fd5b61462161038c565b632c1d501360e11b815280614638600482016109f1565b0390fd5b929190614687602061465561465087612d94565b61334b565b6370a082319061467c61466730613357565b9261467061038c565b95869485938493611fdd565b8352600483016107ca565b03915afa90811561471f575f916146f1575b506146ac6146a6836103e5565b916103e5565b106146cb576146be6146c69394612d94565b91909161705d565b6145f4565b6146ed846146d761038c565b9182916311745b6160e21b8352600483016107ca565b0390fd5b614712915060203d8111614718575b61470a8183610afd565b810190613372565b5f614699565b503d614700565b61206a565b6147469061473061038c565b9182916305fd61ad60e01b8352600483016107ca565b0390fd5b906147559291614426565b565b9061477199989796959493929161476c61617a565b614774565b90565b906147ab9998979695949392916147a6336147a061479a6147956004612403565b61051c565b9161051c565b146125b5565b6148dc565b90565b60207f62616c616e636520666f72207472616e73666572000000000000000000000000917f506f6f6c4d616e616765723a20696e73756666696369656e7420746f6b656e205f8201520152565b6148086034604092612410565b614811816147ae565b0190565b61482a9060208101905f8183039101526147fb565b90565b1561483457565b61483c61038c565b62461bcd60e51b81528061485260048201614815565b0390fd5b9694929099989795939161012088019a5f8901614872916103e8565b6020880161487f916103e8565b6040870161488c91610701565b6060860161489991610701565b608085016148a691610701565b60a084016148b391610701565b60c083016148c0916103e8565b60e082016148cd916103e8565b610100016148da916103e8565b565b9892909396979194959850846148fa6148f4466103e5565b916103e5565b03614b6c5761491161490b8561626b565b156106ef565b614b465761493261492c614927600a8c90611b4c565b610625565b156106ef565b614b205790614982939291602061495061494b8c612d94565b61334b565b6370a082319061497761496230613357565b9261496b61038c565b998a9485938493611fdd565b8352600483016107ca565b03915afa948515614b1b578a956149b4915f91614aed575b506149ad6149a78c6103e5565b916103e5565b101561482d565b6149c86149c086612d94565b898b9161705d565b6149f0896149ea6149db600b8990610832565b916149e583610678565b611f93565b90611ee9565b614a026149fd6005611fcc565b6104b5565b92637ae1e82891859188948c8b99938d91929394893b15614ae857614a2561038c565b9b8c99614a328b9a611fdd565b8a5260048a0198614a4299614856565b03815a5f948591f1918215614ae357614aaf92614ab7575b50919295614a6730613357565b949590614a9d614a977f7add2d08613c9e66b48e0cd9188091059a1eeeceaeed10d42cb1720aa8dec7679761059b565b9761059b565b97614aa661038c565b95869586613961565b0390a3600190565b614ad6905f3d8111614adc575b614ace8183610afd565b810190611fe3565b5f614a5a565b503d614ac4565b61206a565b611fd9565b614b0e915060203d8111614b14575b614b068183610afd565b810190613372565b5f61499a565b503d614afc565b61206a565b614b4289614b2c61038c565b9182916305fd61ad60e01b8352600483016107ca565b0390fd5b614b6884614b5261038c565b918291632ef6974160e11b8352600483016103f5565b0390fd5b614b7461038c565b631a26aa4d60e21b815280614b8b600482016109f1565b0390fd5b90614ba89897969594939291614ba3611e33565b614757565b90565b606090565b67ffffffffffffffff8111614bc85760208091020190565b610ae9565b90614bdf614bda83614bb0565b610b26565b918252565b614bee60a0610b26565b90565b90614c6f614c666003614c02614be4565b94614c19614c115f8301610625565b5f8801612703565b614c30614c275f8301610657565b602088016126e7565b614c48614c3f60018301610678565b604088016126f5565b614c60614c5760028301610678565b606088016126f5565b01610678565b608084016126f5565b565b614c7a90614bf1565b90565b90614c87826105d1565b614c9081614bcd565b92614c9e60208501916105d5565b5f915b838310614cae5750505050565b60046020600192614cbe85614c71565b815201920192019190614ca1565b614cd590614c7d565b90565b614cef614cf491614ce7614bab565b50600f6105a7565b614ccc565b90565b614cff6170ab565b614d07614d31565b565b614d1d614d18614d229261235a565b61048a565b61047f565b90565b614d2e90614d09565b90565b614d42614d3d5f614d25565b6171e7565b565b614d4c614cf7565b565b614d566170ab565b614d5e614d60565b565b614d686172bd565b565b614d72614d4e565b565b5f90565b614d80614d74565b50614d935f614d8d6172c7565b01612403565b90565b90614daf9897969594939291614daa61617a565b614db2565b90565b90614de89897969594939291614de333614ddd614dd7614dd26004612403565b61051c565b9161051c565b146125b5565b614deb565b90565b97919796929495969390935087614e0a614e04466103e5565b916103e5565b03614fe157614e21614e1b8561626b565b156106ef565b614fbb57614e625f80614e3b614e368a6144e6565b613e64565b8a614e4461038c565b9081614e4f81613e84565b03925af1614e5b613ecf565b50156106ef565b614f9857614e9587614e8f614e80600b614e7a611af4565b90610832565b91614e8a83610678565b611f93565b90611ee9565b614ea7614ea26005611fcc565b6104b5565b637ae1e8289385928a9588614eba611af4565b92938b978d919091873b15614f93575f99614ee9978b97614ef496614edd61038c565b9e8f9d8e9c8d9b611fdd565b8b5260048b01614856565b03925af18015614f8e57614f62575b50939093614f5a614f1330613357565b9394614f48614f427feb0a2e1a2d528efe194dccba78e1f08be6e84e330206377d56c2a2fb492e5df79661059b565b9661059b565b96614f5161038c565b9485948561207a565b0390a3600190565b614f81905f3d8111614f87575b614f798183610afd565b810190611fe3565b5f614f03565b503d614f6f565b61206a565b611fd9565b614fa061038c565b6389a360eb60e01b815280614fb7600482016109f1565b0390fd5b614fdd84614fc761038c565b918291632ef6974160e11b8352600483016103f5565b0390fd5b614fe961038c565b631a26aa4d60e21b815280615000600482016109f1565b0390fd5b9061501c97969594939291615017611e33565b614d96565b90565b6150276161d7565b61502f615039565b61503761624e565b565b61504161617a565b61504961504b565b565b3461507861507261506d615068600d615062611af4565b90610832565b610678565b6103e5565b916103e5565b106152a957615098615093600e61508d611af4565b90610ed8565b610eee565b6150aa6150a45f61235d565b916103e5565b14615282576150dd6150cd6150c8600e6150c2611af4565b90610ed8565b610eee565b6150d76001612642565b90611f93565b6151055f6150fe6150f7600e6150f1611af4565b90610ed8565b8490610efb565b5001610f37565b615117615111426103e5565b916133b2565b115f14615249576151d290615199615139615134600f33906105a7565b6133ce565b5f906151948461518b6151825f61517d615151611af4565b94615174349661516b6151626133d1565b9b5f8d01612703565b60208b016126e7565b604089016126f5565b61235d565b606086016126f5565b608084016126f5565b6134e9565b6151cc60016151bb34936151b6600e6151b0611af4565b90610ed8565b610efb565b5001916151c783610678565b611ea6565b90611ee9565b615201346151fb6151ec600b6151e6611af4565b90610832565b916151f683610678565b611ea6565b90611ee9565b3346903461522f7fc30647c83f1ae8cba53f299401139cccd78519cd0cdf3937716ee01df27d509f9261059b565b9261524461523b61038c565b92839283611e6f565b0390a2565b61526061527e9161525a6001612642565b90611ea6565b61526861038c565b918291637d58ebb960e01b8352600483016103f5565b0390fd5b6152a5600161528f61038c565b918291637d58ebb960e01b83526004830161339d565b0390fd5b6152c46152bf600d6152b9611af4565b90610832565b610678565b34906152e76152d161038c565b9283926327500c6d60e21b845260048401611e6f565b0390fd5b6152f361501f565b565b6152fd612ea4565b5061531061530b600661148b565b612f46565b9061531a5f61235d565b905b8161533861533261532d600661148b565b6103e5565b916103e5565b10156154a0576153475f61235d565b906153515f61235d565b5b8061537861537261536d615368600f33906105a7565b6105d1565b6103e5565b916103e5565b10156154415761539f5f615398615391600f33906105a7565b84906105de565b5001610657565b6153c56153bf6153ba6153b460068990611498565b906107ad565b61051c565b9161051c565b146153da575b6153d5905b612379565b615352565b916153fc5f6153f56153ee600f33906105a7565b86906105de565b5001610625565b6154375761542f6153d591615429600361542261541b600f33906105a7565b88906105de565b5001610678565b90611ea6565b9290506153cb565b916153d5906153d0565b509161549361549a9261548061546261545c60068690611498565b906107ad565b9161547761546e612f6d565b935f85016126e7565b602083016126f5565b85839161548d8383612f7a565b52612f7a565b5150612379565b9061531c565b91905090565b906154d5916154d0336154ca6154c46154bf6004612403565b61051c565b9161051c565b146125b5565b6155b3565b565b90565b5f5260205f2090565b5490565b6154f0816154e3565b82101561550a576155026001916154da565b910201905f90565b6105bd565b9190600861552f91029161552960018060a01b038461292c565b9261292c565b9181191691161790565b919061554f61554a6155579361059b565b61282b565b90835461550f565b9055565b908154916801000000000000000083101561558b5782615583916001615589950181556154e7565b90615539565b565b610ae9565b9160206155b19294936155aa60408201965f8301906106f4565b01906103e8565b565b6155c8826155c3600a8490611b4c565b612683565b81615613575b466155f97ff37cdf0b5a2a780dfbdbd1bb6f8a3bcdf62c8941ba001debfa56dfd8eab89b6c9261059b565b9261560e61560561038c565b92839283615590565b0390a2565b61562761562060066154d7565b829061555b565b6155ce565b90615636916154a6565b565b615666906156613361565b6156556156506004612403565b61051c565b9161051c565b146125b5565b615668565b565b615673816001611ee9565b6156a97f39315f035b4e62ef103e9d2372379ecc1fda660b2b8bf306693ff8a07ed1dd3f916156a061038c565b918291826103f5565b0390a1565b6156b790615638565b565b6156ca906156c561617a565b6156cd565b90565b6156de906156d96161d7565b6156e9565b906156e761624e565b565b5061571934615713615704600b6156fe611af4565b90610832565b9161570e83610678565b611ea6565b90611ee9565b615721611af4565b33349161576c61575a6157547f4b3f81827ede20c81afbf1bb77b954afcdcae24d391d99042310cb1d9210dd579361059b565b9361059b565b9361576361038c565b918291826103f5565b0390a3600190565b61578461577f611e33565b6156b9565b90565b906157b6916157b1336157ab6157a56157a06004612403565b61051c565b9161051c565b146125b5565b6157b8565b565b816157cb6157c55f61235d565b916103e5565b1461582a576157e5826157e0600d8490610832565b611ee9565b466158107f6559cfa4c9d2d533663fa9b68e86d2bb216ac0d2bf462b0529ab01525dce08379261059b565b9261582561581c61038c565b92839283611e6f565b0390a2565b61584c8261583661038c565b918291637a11cf7560e01b8352600483016103f5565b0390fd5b9061585a91615787565b565b6158736158789161586b611e10565b50600f6105a7565b6105d1565b90565b906158aa916158a53361589f6158996158946004612403565b61051c565b9161051c565b146125b5565b6158cf565b565b9160206158cd9294936158c660408201965f8301906103e8565b01906106f4565b565b6158e4826158df60098490611396565b612683565b907f756e8389496652aad1bd6bd9ea1e81b5b53341a798eb468701bb68403594c9509161591b61591261038c565b928392836158ac565b0390a1565b9061592a9161587b565b565b9061595c92916159573361595161594b6159466004612403565b61051c565b9161051c565b146125b5565b6159a8565b565b91602061597f92949361597860408201965f830190610701565b01906106f4565b565b61598d615993916108d2565b916108d2565b90039063ffffffff82116159a357565b611e92565b90916159be6159b9600a8490611b4c565b610625565b615bb25782600a836159cf91611b4c565b906159d991612683565b600e826159e591610ed8565b6159ee906126a3565b816159f85f610f37565b615a0191615981565b82845f805f925f94615a116126cc565b965f880190615a1f916126d9565b6020870190615a2d916126d9565b6040860190615a3b916126e7565b615a449061235d565b6060850190615a52916126f5565b615a5b9061235d565b6080840190615a69916126f5565b615a729061235d565b60a0830190615a80916126f5565b60c0820190615a8e91612703565b615a9791612930565b600e82615aa391610ed8565b615aac906126a3565b9080615ab75f610f37565b615ac0916126a6565b835f805f925f94615acf6126cc565b965f880190615add916126d9565b6020870190615aeb916126d9565b6040860190615af9916126e7565b615b029061235d565b6060850190615b10916126f5565b615b199061235d565b6080840190615b27916126f5565b615b309061235d565b60a0830190615b3e916126f5565b60c0820190615b4c91612703565b615b5591612930565b6006615b60906154d7565b81615b6a9161555b565b46917ff37cdf0b5a2a780dfbdbd1bb6f8a3bcdf62c8941ba001debfa56dfd8eab89b6c91615b979061059b565b92615ba061038c565b918291615bad9183615590565b0390a2565b50615bd4615bbe61038c565b92839263411befff60e11b84526004840161595e565b0390fd5b90615be3929161592c565b565b615bf690615bf16170ab565b615bf8565b565b80615c13615c0d615c085f614d25565b61051c565b9161051c565b14615c2357615c21906171e7565b565b615c4d615c2f5f614d25565b615c3761038c565b918291631e4fbdf760e01b8352600483016107ca565b0390fd5b615c5a90615be5565b565b615c6d90615c686161d7565b615c77565b615c7561624e565b565b615c8890615c8361617a565b615c8a565b565b80615cb0615caa615ca5615ca0600f33906105a7565b6105d1565b6103e5565b916103e5565b1015615cc657615cc4903390600191616c3e565b565b615cda615cd5600f33906105a7565b6105d1565b90615cfc615ce661038c565b92839263abe5c32f60e01b845260048401611e6f565b0390fd5b615d0990615c5c565b565b615d17615d1c91610f6b565b61060b565b90565b615d299054615d0b565b90565b67ffffffffffffffff1690565b615d45615d4a91610606565b615d2c565b90565b615d579054615d39565b90565b67ffffffffffffffff1690565b615d7b615d76615d809261235a565b61048a565b615d5a565b90565b615d97615d92615d9c9261263f565b61048a565b615d5a565b90565b615da8906104a9565b90565b90615dbe67ffffffffffffffff91611ecb565b9181191691161790565b615ddc615dd7615de192615d5a565b61048a565b615d5a565b90565b90565b90615dfc615df7615e0392615dc8565b615de4565b8254615dab565b9055565b90615e1b68ff000000000000000091612801565b9181191691161790565b90615e3a615e35615e4192612674565b612680565b8254615e07565b9055565b615e4e90615d83565b9052565b9190615e65905f60208501940190615e45565b565b909192615e726172eb565b93615e87615e815f8701615d1f565b156106ef565b93615e935f8701615d4d565b80615ea6615ea05f615d67565b91615d5a565b1480615fc7575b90615ec1615ebb6001615d83565b91615d5a565b1480615f9f575b615ed39091156106ef565b9081615f8e575b50615f6b57615f0393615ef8615ef06001615d83565b5f8901615de7565b85615f59575b6160ad565b615f0b575b50565b615f18905f809101615e25565b6001615f507fc7f505b2f371ae2175ee4913f4499e1f2633a7b5936321eed1cdaeb6115181d291615f4761038c565b91829182615e52565b0390a15f615f08565b615f6660015f8901615e25565b615efe565b615f7361038c565b63f92ee8a960e01b815280615f8a600482016109f1565b0390fd5b615f999150156106ef565b5f615eda565b50615ed3615fac30615d9f565b3b615fbf615fb95f61235d565b916103e5565b149050615ec8565b5085615ead565b90565b615fe5615fe0615fea92615fce565b61048a565b6108d2565b90565b90565b616004615fff61600992615fed565b61048a565b6103e5565b90565b90565b61602361601e6160289261600c565b61048a565b6103e5565b90565b6160349061048d565b90565b6160409061602b565b90565b9061605460018060a01b0391611ecb565b9181191691161790565b6160679061602b565b90565b90565b9061608261607d6160899261605e565b61606a565b8254616043565b9055565b906160a261609d6160a99261059b565b61282b565b8254616043565b9055565b9161613261612b6161399361612661614097966160c8617312565b6160dd6160d7621baf80615fd1565b5f61279e565b6160f86160f167016345785d8a0000615ff0565b6001611ee9565b61610d61610661271061600f565b6002611ee9565b61612161611a6001612642565b6003611ee9565b61733a565b616037565b600561606d565b600461608d565b600861608d565b565b9061614e939291615e67565b565b61616761616c9161615f611e10565b50600e610ed8565b610eee565b90565b616177615774565b50565b616182614232565b61618857565b61619061038c565b63d93c066560e01b8152806161a7600482016109f1565b0390fd5b90565b6161c26161bd6161c7926161ab565b61048a565b6103e5565b90565b6161d460026161ae565b90565b6161df617345565b6161ea5f8201610678565b6162036161fd6161f86161ca565b6103e5565b916103e5565b1461621e5761621c905f6162156161ca565b9101611ee9565b565b61622661038c565b633ee5aeb560e01b81528061623d600482016109f1565b0390fd5b61624b6001612642565b90565b616269616259617345565b5f616262616241565b9101611ee9565b565b6162826162879161627a611e33565b506009611396565b610625565b90565b6162939061235d565b9052565b91906162aa905f6020850194019061628a565b565b6162b5906103e5565b5f81146162c3576001900390565b611e92565b90565b6162df6162da6162e4926162c8565b61048a565b6103e5565b90565b919461632f6163399298979561632560a09661631b6163409a61631160c08a019e5f8b0190610701565b60208901906103e8565b60408701906103e8565b60608501906103e8565b6080830190610701565b01906103e8565b565b9080820361634f575b5050565b6163c1600380846163705f6163c7970161636a5f8801610625565b90612683565b6163875f82016163815f8801610657565b90613436565b6163a06001820161639a60018801610678565b90611ee9565b6163b9600282016163b360028801610678565b90611ee9565b019201610678565b90611ee9565b5f8061634b565b91906163df576163dd91616342565b565b612746565b634e487b7160e01b5f52603160045260245ffd5b9190600861641391029161640d5f198461292c565b9261292c565b9181191691161790565b919061643361642e61643b9361137a565b611ee6565b9083546163f8565b9055565b6164519161644b611e10565b9161641d565b565b5f600361647f92828082015561646c836001830161643f565b616479836002830161643f565b0161643f565b565b905f036164935761649190616453565b565b612746565b6164a1816133e7565b80156164c25760019003906164bf6164b983836133eb565b90616481565b55565b6163e4565b949290979695939160e08601985f87016164e091610701565b602086016164ed916103e8565b604085016164fa916103e8565b60608401616507916103e8565b6080830161651491610701565b60a08201616521916103e8565b60c00161652d916103e8565b565b909291616546616541600e8690610ed8565b610eee565b6165586165525f61235d565b916103e5565b146169b45761657161656c600f84906105a7565b6105d1565b5b8061658561657f5f61235d565b916103e5565b11156169ad5761659f816165996001612642565b90611f93565b6165c05f6165b96165b2600f88906105a7565b84906105de565b5001610657565b6165d26165cc8861051c565b9161051c565b146165e8575b506165e3905b6162ac565b616572565b93929161660c5f6166056165fe600f87906105a7565b88906105de565b5001610625565b6169a057616637616627616622600e8990610ed8565b610eee565b6166316001612642565b90611f93565b6166405f61235d565b94616663600361665c616655600f89906105a7565b8a906105de565b5001610678565b94616686600161667f616678600f85906105a7565b8b906105de565b5001610678565b91825b8061669c616696876103e5565b916103e5565b10156167825787600e8c6166af91610ed8565b826166b991610efb565b506002016166c690610678565b6166cf91611f09565b670de0b6b3a76400006166e1906162cb565b6166ea91611f09565b600e8c6166f691610ed8565b8261670091610efb565b5060010161670d90610678565b61671691611f71565b9889670de0b6b3a764000061672a906162cb565b61673391611f71565b61673c91611ea6565b98600e8c61674991610ed8565b8261675391610efb565b506003019061676182610678565b9061676b91611ea6565b61677491611ee9565b61677d90612379565b616689565b50976167996165e396959798949392988590611ea6565b6167bb60015f6167b46167ad8d600f6105a7565b86906105de565b5001612683565b8a89895f146169265761689f939161681860016168076168006167f860036167f16167ea61681e99600f6105a7565b8a906105de565b5001610678565b94600e610ed8565b8a90610efb565b50019161681383610678565b611f93565b90611ee9565b61682a8c8b84916169da565b5061683f61683a600f8c906105a7565b6105d1565b61685161684b5f61235d565b916103e5565b116168a9575b5088929394469161686a8d918390611f93565b91927fe7ec1c5ac03ffbc42e14868f1c00af28ca9cc9e4f02bec224142d7cc1ad64ca89761689661038c565b978897886164c7565b0390a15b906165d8565b616904906168fe6168ec8c6168e66168d66168d16168c9600f85906105a7565b93600f6105a7565b6105d1565b6168e06001612642565b90611f93565b906105de565b50916168f98d600f6105a7565b6105de565b906163ce565b61692061691b616916600f8c906105a7565b6133ce565b616498565b5f616857565b50505061694c9060016169458592616940600f8d906105a7565b6105de565b5001611ee9565b616958898885916169da565b506169988791929346908b90917f36b99ff884a288b9b46a49442e3c4c89464469fae98da480f519664f99fc4a6f9661698f61038c565b968796876162e7565b0390a16168a3565b919293506165e3906165de565b5050509050565b6169d65f6169c061038c565b918291637d58ebb960e01b835260048301616297565b0390fd5b9190916169e5611e33565b50616a036169fd6169f8600a8490611b4c565b610625565b156106ef565b616c1857616a37616a1e616a19600b8490610832565b610678565b616a30616a2a856103e5565b916103e5565b10156144b1565b616a5f82616a59616a4a600b8590610832565b91616a5483610678565b611f93565b90611ee9565b80616a79616a73616a6e611af4565b61051c565b9161051c565b145f14616b305750616a8a30613357565b31616a9d616a97836103e5565b916103e5565b10616b0d575f8091616ab9616ab4616ae0956144e6565b613e64565b90616ac261038c565b9081616acd81613e84565b03925af1616ad9613ecf565b50156106ef565b616aea575b600190565b616af261038c565b6389a360eb60e01b815280616b09600482016109f1565b0390fd5b616b1561038c565b632c1d501360e11b815280616b2c600482016109f1565b0390fd5b929190616b7b6020616b49616b4487612d94565b61334b565b6370a0823190616b70616b5b30613357565b92616b6461038c565b95869485938493611fdd565b8352600483016107ca565b03915afa908115616c13575f91616be5575b50616ba0616b9a836103e5565b916103e5565b10616bbf57616bb2616bba9394612d94565b91909161705d565b616ae5565b616be184616bcb61038c565b9182916311745b6160e21b8352600483016107ca565b0390fd5b616c06915060203d8111616c0c575b616bfe8183610afd565b810190613372565b5f616b8d565b503d616bf4565b61206a565b616c3a90616c2461038c565b9182916305fd61ad60e01b8352600483016107ca565b0390fd5b9091616c615f616c5a616c53600f86906105a7565b86906105de565b5001610657565b91616c89616c79616c74600e8690610ed8565b610eee565b616c836001612642565b90611f93565b91616c935f61235d565b92616cb66003616caf616ca8600f87906105a7565b89906105de565b5001610678565b92616cd96001616cd2616ccb600f85906105a7565b8a906105de565b5001610678565b90616cfb5f616cf4616ced600f85906105a7565b8b906105de565b5001610625565b616fef57815b80616d14616d0e866103e5565b916103e5565b1015616dfa5785600e89616d2791610ed8565b82616d3191610efb565b50600201616d3e90610678565b616d4791611f09565b670de0b6b3a7640000616d59906162cb565b616d6291611f09565b600e89616d6e91610ed8565b82616d7891610efb565b50600101616d8590610678565b616d8e91611f71565b9687670de0b6b3a7640000616da2906162cb565b616dab91611f71565b616db491611ea6565b96600e89616dc191610ed8565b82616dcb91610efb565b5060030190616dd982610678565b90616de391611ea6565b616dec91611ee9565b616df590612379565b616d01565b50919593616e0e9097919593978490611ea6565b965f14616f765790616ef2939291616e73616e416003616e3a616e33600f87906105a7565b85906105de565b5001610678565b616e6d6001616e5c616e55600e8a90610ed8565b8c90610efb565b500191616e6883610678565b611f93565b90611ee9565b616e7f84838a916169da565b50616e94616e8f600f84906105a7565b6105d1565b616ea6616ea05f61235d565b916103e5565b11616ef8575b50939495616ebd4693918390611f93565b91927fe7ec1c5ac03ffbc42e14868f1c00af28ca9cc9e4f02bec224142d7cc1ad64ca897616ee961038c565b978897886164c7565b0390a15b565b616f5490616f4e616f3b616f0e600f86906105a7565b616f35616f25616f20600f89906105a7565b6105d1565b616f2f6001612642565b90611f93565b906105de565b5091616f49600f86906105a7565b6105de565b906163ce565b616f70616f6b616f66600f84906105a7565b6133ce565b616498565b5f616eac565b616fe793929650616fa0906001616f998892616f94600f87906105a7565b6105de565b5001611ee9565b616fac828288916169da565b50929394469190917f36b99ff884a288b9b46a49442e3c4c89464469fae98da480f519664f99fc4a6f96616fde61038c565b968796876162e7565b0390a1616ef6565b616ff761038c565b63374c934360e11b81528061700e600482016109f1565b0390fd5b63ffffffff60e01b1690565b61703261702d617037926108d2565b611fdd565b617012565b90565b91602061705b92949361705460408201965f830190610701565b01906103e8565b565b906170a46170a9936170956004949361707c63a9059cbb91939161701e565b9261708561038c565b968794602086019081520161703a565b60208201810382520383610afd565b617369565b565b6170b3614d78565b6170cc6170c66170c1617424565b61051c565b9161051c565b036170d357565b6170fc6170de617424565b6170e661038c565b91829163118cdaa760e01b8352600483016107ca565b0390fd5b617108617431565b617110617112565b565b61712661711d6171c3565b5f809101612683565b61712e617424565b6171647f5db9ee0a495bf2e6ff9c91a7834c1ba4fdd244a5e8aa4e537bd38aeae4b073aa9161715b61038c565b918291826107ca565b0390a1565b617171617100565b565b6004926171ad6171c195936171bc93946171946323b872dd9294919261701e565b9361719d61038c565b9788956020870190815201612da0565b60208201810382520383610afd565b617369565b565b7fcd5ed15c6e187e77e9aee88184c21f4f2182ab5827cb3b7e07fbedcd63f0330090565b6171ef6172c7565b6172076171fd5f8301612403565b915f84910161608d565b9061723b6172357f8be0079c531659141344cd1fd0a4f28419497f9722a3daafe3b4186f6b6457e09361059b565b9161059b565b9161724461038c565b8061724e816109f1565b0390a3565b61725b61617a565b617263617265565b565b61727a6172706171c3565b5f60019101612683565b617282617424565b6172b87f62e78cea01bee320cd4e420270b5ea74000d11b0c9f74754ebdbfc544b05a258916172af61038c565b918291826107ca565b0390a1565b6172c5617253565b565b7f9016d09d72d40fdae2fd8ceac6b6234c7706214fd39c1cd1e609a0528c19930090565b6172f36174bd565b90565b6172fe6174d1565b617306617308565b565b61731061753a565b565b61731a6172f6565b565b61732d906173286174d1565b61732f565b565b617338906175b0565b565b6173439061731c565b565b7f9b779b17422d0df92223018b32b4d1fa46e071723d6817e2486d003becc55f0090565b905f602091617376611e10565b5061737f611e10565b50828151910182855af115617419573d5f51906173a461739e5f61235d565b916103e5565b145f146173ff57506173b58161334b565b3b6173c86173c25f61235d565b916103e5565b145b6173d15750565b6173dd6173fb9161334b565b6173e561038c565b918291635274afe760e01b8352600483016107ca565b0390fd5b61741261740c6001612642565b916103e5565b14156173ca565b6040513d5f823e3d90fd5b61742c614d74565b503390565b61744261743c614232565b156106ef565b61744857565b61745061038c565b638dfc202b60e01b815280617467600482016109f1565b0390fd5b5f90565b90565b90565b61748961748461748e9261746f565b611ecb565b617472565b90565b6174ba7ff0c57e16840df040f15088dc2f81fe391c3923bec73e23a9662efc9c229c6a00617475565b90565b6174c561746b565b506174ce617491565b90565b6174e26174dc6175bb565b156106ef565b6174e857565b6174f061038c565b631afcd79f60e31b815280617507600482016109f1565b0390fd5b6175136174d1565b61751b61751d565b565b617538617528617345565b5f617531616241565b9101611ee9565b565b61754261750b565b565b617555906175506174d1565b617557565b565b8061757261756c6175675f614d25565b61051c565b9161051c565b1461758257617580906171e7565b565b6175ac61758e5f614d25565b61759661038c565b918291631e4fbdf760e01b8352600483016107ca565b0390fd5b6175b990617544565b565b6175c3611e33565b506175d65f6175d06172eb565b01615d1f565b9056fea2646970667358221220537b774f2e4a5a4d323ccd066e83581021e776a3a1697a7b64175a5a400595ce64736f6c63430008190033","linkReferences":{}},"methodIdentifiers":{"BridgeFinalizeERC20(uint256,uint256,address,address,address,address,uint256,uint256,uint256)":"6ec9f812","BridgeFinalizeETH(uint256,uint256,address,address,address,uint256,uint256,uint256)":"94a00978","BridgeInitiateERC20(uint256,uint256,address,address,address,uint256)":"4eb71542","BridgeInitiateETH(uint256,uint256,address,address)":"24237f84","ClaimAllReward()":"2c37388b","ClaimbyID(uint256)":"34d34ef5","CompletePoolAndNew((uint32,uint32,address,uint256,uint256,uint256,bool)[])":"3338562c","DepositAndStakingERC20(address,uint256)":"4dfaef84","DepositAndStakingETH()":"96f984e6","ETHAddress()":"da228a9b","FeePoolValue(address)":"54dc027e","FundingPoolBalance(address)":"dbb0481f","IsSupportToken(address)":"dac29568","IsSupportedChainId(uint256)":"5bc65b40","MinStakeAmount(address)":"1ca2f173","MinTransferAmount()":"09dc480c","PerFee()":"dd0c3460","Pools(address,uint256)":"4663cdc8","QuickSendAssertToUser(address,address,uint256)":"325e5d43","SupportTokens(uint256)":"626417b5","Users(address,uint256)":"13e8544e","WithdrawAll()":"5a648bc5","WithdrawByID(uint256)":"f62a89cf","WithdrawPoolManagerAssetTo(address,address,uint256)":"6b7edb55","assetBalanceMessager()":"9c014432","depositErc20ToBridge(address,uint256)":"60ba33ff","depositEthToBridge()":"bb8fc7a8","fetchFundingPoolBalance(address)":"1f9eda8f","getPool(address,uint256)":"5b5b9ea2","getPoolLength(address)":"f8fcc2aa","getPrincipal()":"a69bdf16","getReward()":"3d18b912","getUser(address)":"6f77926b","getUserLength(address)":"cb4f04ad","initialize(address,address,address,address)":"f8c8765e","messageManager()":"10875a13","owner()":"8da5cb5b","pause()":"8456cb59","paused()":"5c975abb","periodTime()":"1d31fac0","relayerAddress()":"18a7cca8","renounceOwnership()":"715018a6","setMinStakeAmount(address,uint256)":"cb314fab","setMinTransferAmount(uint256)":"b92e6396","setPerFee(uint256)":"650c2276","setSupportERC20Token(address,bool)":"ab0f9e19","setSupportToken(address,bool,uint32)":"e2070893","setValidChainId(uint256,bool)":"d73f14e5","stakingMessageNumber()":"31d98b3b","transferOwnership(address)":"f2fde38b","unpause()":"3f4ba83a","withdrawErc20FromBridge(address,address,uint256)":"34fa7f70","withdrawEthFromBridge(address,uint256)":"52662af3","withdrawManager()":"ec3e9da5"},"id":53}