{"abi":[{"type":"constructor","inputs":[],"stateMutability":"nonpayable"},{"type":"function","name":"claimMessage","inputs":[{"name":"sourceChainId","type":"uint256","internalType":"uint256"},{"name":"destChainId","type":"uint256","internalType":"uint256"},{"name":"sourceTokenAddress","type":"address","internalType":"address"},{"name":"destTokenAddress","type":"address","internalType":"address"},{"name":"_from","type":"address","internalType":"address"},{"name":"_to","type":"address","internalType":"address"},{"name":"_value","type":"uint256","internalType":"uint256"},{"name":"_fee","type":"uint256","internalType":"uint256"},{"name":"_nonce","type":"uint256","internalType":"uint256"}],"outputs":[],"stateMutability":"nonpayable"},{"type":"function","name":"cliamMessageStatus","inputs":[{"name":"","type":"bytes32","internalType":"bytes32"}],"outputs":[{"name":"","type":"bool","internalType":"bool"}],"stateMutability":"view"},{"type":"function","name":"initialize","inputs":[{"name":"initialOwner","type":"address","internalType":"address"},{"name":"_poolManagerAddress","type":"address","internalType":"address"}],"outputs":[],"stateMutability":"nonpayable"},{"type":"function","name":"nextMessageNumber","inputs":[],"outputs":[{"name":"","type":"uint256","internalType":"uint256"}],"stateMutability":"view"},{"type":"function","name":"owner","inputs":[],"outputs":[{"name":"","type":"address","internalType":"address"}],"stateMutability":"view"},{"type":"function","name":"poolManagerAddress","inputs":[],"outputs":[{"name":"","type":"address","internalType":"address"}],"stateMutability":"view"},{"type":"function","name":"renounceOwnership","inputs":[],"outputs":[],"stateMutability":"nonpayable"},{"type":"function","name":"sendMessage","inputs":[{"name":"sourceChainId","type":"uint256","internalType":"uint256"},{"name":"destChainId","type":"uint256","internalType":"uint256"},{"name":"sourceTokenAddress","type":"address","internalType":"address"},{"name":"destTokenAddress","type":"address","internalType":"address"},{"name":"_from","type":"address","internalType":"address"},{"name":"_to","type":"address","internalType":"address"},{"name":"_value","type":"uint256","internalType":"uint256"},{"name":"_fee","type":"uint256","internalType":"uint256"}],"outputs":[],"stateMutability":"nonpayable"},{"type":"function","name":"sentMessageStatus","inputs":[{"name":"","type":"bytes32","internalType":"bytes32"}],"outputs":[{"name":"","type":"bool","internalType":"bool"}],"stateMutability":"view"},{"type":"function","name":"transferOwnership","inputs":[{"name":"newOwner","type":"address","internalType":"address"}],"outputs":[],"stateMutability":"nonpayable"},{"type":"event","name":"Initialized","inputs":[{"name":"version","type":"uint64","indexed":false,"internalType":"uint64"}],"anonymous":false},{"type":"event","name":"MessageClaimed","inputs":[{"name":"sourceChainId","type":"uint256","indexed":false,"internalType":"uint256"},{"name":"destChainId","type":"uint256","indexed":false,"internalType":"uint256"},{"name":"sourceTokenAddress","type":"address","indexed":false,"internalType":"address"},{"name":"destTokenAddress","type":"address","indexed":false,"internalType":"address"},{"name":"_messageHash","type":"bytes32","indexed":true,"internalType":"bytes32"},{"name":"_nonce","type":"uint256","indexed":false,"internalType":"uint256"}],"anonymous":false},{"type":"event","name":"MessageSent","inputs":[{"name":"sourceChainId","type":"uint256","indexed":false,"internalType":"uint256"},{"name":"destChainId","type":"uint256","indexed":false,"internalType":"uint256"},{"name":"sourceTokenAddress","type":"address","indexed":false,"internalType":"address"},{"name":"destTokenAddress","type":"address","indexed":false,"internalType":"address"},{"name":"_from","type":"address","indexed":true,"internalType":"address"},{"name":"_to","type":"address","indexed":true,"internalType":"address"},{"name":"_fee","type":"uint256","indexed":false,"internalType":"uint256"},{"name":"_value","type":"uint256","indexed":false,"internalType":"uint256"},{"name":"_nonce","type":"uint256","indexed":false,"internalType":"uint256"},{"name":"_messageHash","type":"bytes32","indexed":true,"internalType":"bytes32"}],"anonymous":false},{"type":"event","name":"OwnershipTransferred","inputs":[{"name":"previousOwner","type":"address","indexed":true,"internalType":"address"},{"name":"newOwner","type":"address","indexed":true,"internalType":"address"}],"anonymous":false},{"type":"error","name":"InvalidInitialization","inputs":[]},{"type":"error","name":"MessageAlreadySent","inputs":[{"name":"messageHash","type":"bytes32","internalType":"bytes32"}]},{"type":"error","name":"NotInitializing","inputs":[]},{"type":"error","name":"OwnableInvalidOwner","inputs":[{"name":"owner","type":"address","internalType":"address"}]},{"type":"error","name":"OwnableUnauthorizedAccount","inputs":[{"name":"account","type":"address","internalType":"address"}]},{"type":"error","name":"ReentrancyGuardReentrantCall","inputs":[]},{"type":"error","name":"ZeroAddressNotAllowed","inputs":[]}],"bytecode":{"object":"0x60806040523461002757610011610036565b61001961002c565b6115a561026382396115a590f35b610032565b60405190565b5f80fd5b61003e610132565b565b60401c90565b60ff1690565b61005861005d91610040565b610046565b90565b61006a905461004c565b90565b5f0190565b5f1c90565b60018060401b031690565b61008e61009391610072565b610077565b90565b6100a09054610082565b90565b60018060401b031690565b5f1b90565b906100c460018060401b03916100ae565b9181191691161790565b90565b6100e56100e06100ea926100a3565b6100ce565b6100a3565b90565b90565b9061010561010061010c926100d1565b6100ed565b82546100b3565b9055565b610119906100a3565b9052565b9190610130905f60208501940190610110565b565b61013a6101f1565b6101455f8201610060565b6101ce576101545f8201610096565b61016c61016660018060401b036100a3565b916100a3565b03610175575b50565b610188905f60018060401b0391016100f0565b60018060401b036101c57fc7f505b2f371ae2175ee4913f4499e1f2633a7b5936321eed1cdaeb6115181d2916101bc61002c565b9182918261011d565b0390a15f610172565b6101d661002c565b63f92ee8a960e01b8152806101ed6004820161006d565b0390fd5b6101f961024e565b90565b5f90565b90565b90565b61021a61021561021f92610200565b6100ae565b610203565b90565b61024b7ff0c57e16840df040f15088dc2f81fe391c3923bec73e23a9662efc9c229c6a00610206565b90565b6102566101fc565b5061025f610222565b9056fe60806040526004361015610013575b610666565b61001d5f356100bc565b806308ba325a146100b7578063485cc955146100b2578063715018a6146100ad5780637ae1e828146100a85780637f8d98c3146100a35780638da5cb5b1461009e578063a8f0849e14610099578063b837dbe914610094578063e6a13f301461008f5763f2fde38b0361000e57610633565b6105e0565b61056b565b6104d6565b610420565b6103c9565b610373565b61028a565b610247565b6101a6565b60e01c90565b60405190565b5f80fd5b5f80fd5b90565b6100dc816100d0565b036100e357565b5f80fd5b905035906100f4826100d3565b565b9060208282031261010f5761010c915f016100e7565b90565b6100cc565b61011d906100d0565b90565b9061012a90610114565b5f5260205260405f2090565b1c90565b60ff1690565b6101509060086101559302610136565b61013a565b90565b906101639154610140565b90565b61017c906101776003915f92610120565b610158565b90565b151590565b61018d9061017f565b9052565b91906101a4905f60208501940190610184565b565b346101d6576101d26101c16101bc3660046100f6565b610166565b6101c96100c2565b91829182610191565b0390f35b6100c8565b60018060a01b031690565b6101ef906101db565b90565b6101fb816101e6565b0361020257565b5f80fd5b90503590610213826101f2565b565b919060408382031261023d578061023161023a925f8601610206565b93602001610206565b90565b6100cc565b5f0190565b346102765761026061025a366004610215565b90610a88565b6102686100c2565b8061027281610242565b0390f35b6100c8565b5f91031261028557565b6100cc565b346102b85761029a36600461027b565b6102a2610ae1565b6102aa6100c2565b806102b481610242565b0390f35b6100c8565b90565b6102c9816102bd565b036102d057565b5f80fd5b905035906102e1826102c0565b565b90916101208284031261036e576102fc835f84016102d4565b9261030a81602085016102d4565b926103188260408301610206565b926103268360608401610206565b926103348160808501610206565b926103428260a08301610206565b9261036b6103538460c085016102d4565b936103618160e086016102d4565b93610100016102d4565b90565b6100cc565b346103ab576103956103863660046102e3565b97969096959195949294610eee565b61039d6100c2565b806103a781610242565b0390f35b6100c8565b6103c6906103c16002915f92610120565b610158565b90565b346103f9576103f56103e46103df3660046100f6565b6103b0565b6103ec6100c2565b91829182610191565b0390f35b6100c8565b610407906101e6565b9052565b919061041e905f602085019401906103fe565b565b346104505761043036600461027b565b61044c61043b610f05565b6104436100c2565b9182918261040b565b0390f35b6100c8565b9190610100838203126104d15761046e815f85016102d4565b9261047c82602083016102d4565b9261048a8360408401610206565b926104988160608501610206565b926104a68260808301610206565b926104ce6104b78460a08501610206565b936104c58160c086016102d4565b9360e0016102d4565b90565b6100cc565b3461050e576104f86104e9366004610455565b96959095949194939293611147565b6105006100c2565b8061050a81610242565b0390f35b6100c8565b90565b61052690600861052b9302610136565b610513565b90565b906105399154610516565b90565b6105465f8061052e565b90565b610552906102bd565b9052565b9190610569905f60208501940190610549565b565b3461059b5761057b36600461027b565b61059761058661053c565b61058e6100c2565b91829182610556565b0390f35b6100c8565b60018060a01b031690565b6105bb9060086105c09302610136565b6105a0565b90565b906105ce91546105ab565b90565b6105dd60015f906105c3565b90565b34610610576105f036600461027b565b61060c6105fb6105d1565b6106036100c2565b9182918261040b565b0390f35b6100c8565b9060208282031261062e5761062b915f01610206565b90565b6100cc565b346106615761064b610646366004610615565b6111c5565b6106536100c2565b8061065d81610242565b0390f35b6100c8565b5f80fd5b60401c90565b61067c6106819161066a565b61013a565b90565b61068e9054610670565b90565b5f1c90565b67ffffffffffffffff1690565b6106af6106b491610691565b610696565b90565b6106c190546106a3565b90565b67ffffffffffffffff1690565b90565b90565b6106eb6106e66106f0926106d1565b6106d4565b6106c4565b90565b90565b61070a61070561070f926106f3565b6106d4565b6106c4565b90565b61072661072161072b926101db565b6106d4565b6101db565b90565b61073790610712565b90565b6107439061072e565b90565b61075a61075561075f926106d1565b6106d4565b6102bd565b90565b5f1b90565b9061077a67ffffffffffffffff91610762565b9181191691161790565b61079861079361079d926106c4565b6106d4565b6106c4565b90565b90565b906107b86107b36107bf92610784565b6107a0565b8254610767565b9055565b60401b90565b906107dd68ff0000000000000000916107c3565b9181191691161790565b6107f09061017f565b90565b90565b9061080b610806610812926107e7565b6107f3565b82546107c9565b9055565b61081f906106f6565b9052565b9190610836905f60208501940190610816565b565b906108416111d0565b916108566108505f8501610684565b1561017f565b916108625f85016106b7565b8061087561086f5f6106d7565b916106c4565b1480610996575b9061089061088a60016106f6565b916106c4565b148061096e575b6108a290911561017f565b908161095d575b5061093a576108d2916108c76108bf60016106f6565b5f87016107a3565b83610928575b610a58565b6108da575b50565b6108e7905f8091016107f6565b600161091f7fc7f505b2f371ae2175ee4913f4499e1f2633a7b5936321eed1cdaeb6115181d2916109166100c2565b91829182610823565b0390a15f6108d7565b61093560015f87016107f6565b6108cd565b6109426100c2565b63f92ee8a960e01b81528061095960048201610242565b0390fd5b61096891501561017f565b5f6108a9565b506108a261097b3061073a565b3b61098e6109885f610746565b916102bd565b149050610897565b508361087c565b906109ae60018060a01b0391610762565b9181191691161790565b6109c19061072e565b90565b90565b906109dc6109d76109e3926109b8565b6109c4565b825461099d565b9055565b6109fb6109f6610a00926106f3565b6106d4565b6102bd565b90565b90610a0f5f1991610762565b9181191691161790565b610a2d610a28610a32926102bd565b6106d4565b6102bd565b90565b90565b90610a4d610a48610a5492610a19565b610a35565b8254610a03565b9055565b610a66610a869260016109c7565b610a79610a7360016109e7565b5f610a38565b610a816111f7565b61121f565b565b90610a9291610838565b565b610a9c61122a565b610aa4610ace565b565b610aba610ab5610abf926106d1565b6106d4565b6101db565b90565b610acb90610aa6565b90565b610adf610ada5f610ac2565b61127f565b565b610ae9610a94565b565b610af7610afc91610691565b6105a0565b90565b610b099054610aeb565b90565b60209181520190565b60207f652063616e20646f2074686973206f7065726174650000000000000000000000917f4d6573736167654d616e616765723a206f6e6c7920746f6b656e2062726964675f8201520152565b610b6f6035604092610b0c565b610b7881610b15565b0190565b610b919060208101905f818303910152610b62565b90565b15610b9b57565b610ba36100c2565b62461bcd60e51b815280610bb960048201610b7c565b0390fd5b90610bf39897969594939291610bee33610be8610be2610bdd6001610aff565b6101e6565b916101e6565b14610b94565b610bf5565b565b90610c0e9897969594939291610c09611317565b610e15565b610c1661138e565b565b9694929099989795939161012088019a5f8901610c3491610549565b60208801610c4191610549565b60408701610c4e916103fe565b60608601610c5b916103fe565b60808501610c68916103fe565b60a08401610c75916103fe565b60c08301610c8291610549565b60e08201610c8f91610549565b61010001610c9c91610549565b565b601f801991011690565b634e487b7160e01b5f52604160045260245ffd5b90610cc690610c9e565b810190811067ffffffffffffffff821117610ce057604052565b610ca8565b60200190565b5190565b610cfb610d0091610691565b61013a565b90565b610d0d9054610cef565b90565b5f7f4d657373616765206e6f7420666f756e64210000000000000000000000000000910152565b610d446012602092610b0c565b610d4d81610d10565b0190565b610d669060208101905f818303910152610d37565b90565b15610d7057565b610d786100c2565b62461bcd60e51b815280610d8e60048201610d51565b0390fd5b90610d9e60ff91610762565b9181191691161790565b90610dbd610db8610dc4926107e7565b6107f3565b8254610d92565b9055565b90959492610e1394610e02610e0c92610df8608096610dee60a088019c5f890190610549565b6020870190610549565b60408501906103fe565b60608301906103fe565b0190610549565b565b92979694610e498989610ee9979599610e58959988958b988d95909192939495610e3d6100c2565b9a8b9960208b01610c18565b60208201810382520382610cbc565b610e6a610e6482610ceb565b91610ce5565b2090610e91610e8c610e86610e8160038690610120565b610d03565b1561017f565b610d69565b610ea76001610ea260038590610120565b610da8565b929395909490610ed77f410ce732ac401991bca377a8f57d056d2ae1c15d9819a9ce066f1b8e2a1b207b96610114565b96610ee06100c2565b95869586610dc8565b0390a2565b90610eff9897969594939291610bbd565b565b5f90565b610f0d610f01565b50610f205f610f1a6113ab565b01610aff565b90565b90610f5897969594939291610f5333610f4d610f47610f426001610aff565b6101e6565b916101e6565b14610b94565b611013565b565b610f66610f6b91610691565b610513565b90565b610f789054610f5a565b90565b634e487b7160e01b5f52601160045260245ffd5b610f98906102bd565b5f198114610fa65760010190565b610f7b565b949290979695939160e08601985f8701610fc491610549565b60208601610fd191610549565b60408501610fde916103fe565b60608401610feb916103fe565b60808301610ff891610549565b60a0820161100591610549565b60c00161101191610549565b565b96949395909192968461103661103061102b5f610ac2565b6101e6565b916101e6565b146111245761111f916110485f610f6e565b9087611083846110748d8d8c8b968d939291909189938b956110686100c2565b9a8b9960208b01610c18565b60208201810382520382610cbc565b61109561108f82610ceb565b91610ce5565b20926110b16110ab6110a65f610f6e565b610f8f565b5f610a38565b6110c760016110c260028790610120565b610da8565b9495999896979091929861110d6111076111017fb7f33a96ca66e7a604eaea9cd873498ec3775d6b36cf3cec44c8df6b467b2e469a6109b8565b9a6109b8565b9a610114565b9a6111166100c2565b97889788610fab565b0390a4565b61112c6100c2565b6342bcdf7f60e11b81528061114360048201610242565b0390fd5b9061115797969594939291610f23565b565b61116a9061116561122a565b61116c565b565b8061118761118161117c5f610ac2565b6101e6565b916101e6565b14611197576111959061127f565b565b6111c16111a35f610ac2565b6111ab6100c2565b918291631e4fbdf760e01b83526004830161040b565b0390fd5b6111ce90611159565b565b6111d861141e565b90565b6111e3611432565b6111eb6111ed565b565b6111f561149b565b565b6111ff6111db565b565b6112129061120d611432565b611214565b565b61121d90611511565b565b61122890611201565b565b611232610f05565b61124b61124561124061151c565b6101e6565b916101e6565b0361125257565b61127b61125d61151c565b6112656100c2565b91829163118cdaa760e01b83526004830161040b565b0390fd5b6112876113ab565b61129f6112955f8301610aff565b915f8491016109c7565b906112d36112cd7f8be0079c531659141344cd1fd0a4f28419497f9722a3daafe3b4186f6b6457e0936109b8565b916109b8565b916112dc6100c2565b806112e681610242565b0390a3565b90565b6113026112fd611307926112eb565b6106d4565b6102bd565b90565b61131460026112ee565b90565b61131f611529565b61132a5f8201610f6e565b61134361133d61133861130a565b6102bd565b916102bd565b1461135e5761135c905f61135561130a565b9101610a38565b565b6113666100c2565b633ee5aeb560e01b81528061137d60048201610242565b0390fd5b61138b60016109e7565b90565b6113a9611399611529565b5f6113a2611381565b9101610a38565b565b7f9016d09d72d40fdae2fd8ceac6b6234c7706214fd39c1cd1e609a0528c19930090565b5f90565b90565b6113ea6113e56113ef926113d3565b610762565b6100d0565b90565b61141b7ff0c57e16840df040f15088dc2f81fe391c3923bec73e23a9662efc9c229c6a006113d6565b90565b6114266113cf565b5061142f6113f2565b90565b61144361143d611551565b1561017f565b61144957565b6114516100c2565b631afcd79f60e31b81528061146860048201610242565b0390fd5b611474611432565b61147c61147e565b565b611499611489611529565b5f611492611381565b9101610a38565b565b6114a361146c565b565b6114b6906114b1611432565b6114b8565b565b806114d36114cd6114c85f610ac2565b6101e6565b916101e6565b146114e3576114e19061127f565b565b61150d6114ef5f610ac2565b6114f76100c2565b918291631e4fbdf760e01b83526004830161040b565b0390fd5b61151a906114a5565b565b611524610f01565b503390565b7f9b779b17422d0df92223018b32b4d1fa46e071723d6817e2486d003becc55f0090565b5f90565b61155961154d565b5061156c5f6115666111d0565b01610684565b9056fea2646970667358221220f91d4b9983026e0dc43477d75b6c5843a6ce0428f41120cb5214c692d60a76e864736f6c63430008190033","linkReferences":{}},"methodIdentifiers":{"claimMessage(uint256,uint256,address,address,address,address,uint256,uint256,uint256)":"7ae1e828","cliamMessageStatus(bytes32)":"08ba325a","initialize(address,address)":"485cc955","nextMessageNumber()":"b837dbe9","owner()":"8da5cb5b","poolManagerAddress()":"e6a13f30","renounceOwnership()":"715018a6","sendMessage(uint256,uint256,address,address,address,address,uint256,uint256)":"a8f0849e","sentMessageStatus(bytes32)":"7f8d98c3","transferOwnership(address)":"f2fde38b"},"id":51}